:020000040000FA
:06000000000080312228FF
:100008007E1480314E01101C0A280B281A28101063
:10001800FE3044018D00CC308C0001304201C00715
:100028000030C13D0030C23D0030C33D7E01BF1EDF
:100038001E281F282028BF127E100900400103082F
:10004800A00080312728663084008B308500E83096
:1000580086000030870008308B31492380317830A2
:1000680084008B30850049308600013087000B30D2
:100078008B3149238031EB01EC01ED01EE01EF01F9
:10008800CA308400003085001E308B314323803114
:10009800203084000130850029308B3143238031A2
:1000A8007E104001803158288D319B2580318E315A
:1000B800B82680318B314F23803111307D01C60045
:1000C80016307E01A10010307D01C50015307E017B
:1000D800A0008B315E23803100304001B100053033
:1000E800B0005730AF003030AE008D31C6258031BA
:1000F8008D31042580318E31FE2680318E31742673
:1001080080316400003040018C1A01304101E40064
:1001180064086306031991289228A1288B316E235D
:10012800803173084201BF007208BE007108BD002B
:100138007008BC004101E201E20A42013F08F300F5
:100148003E08F2003D08F1003C08F0008B31C32363
:1001580080317308031DBC287208031DBC28710870
:10016800031DBC2805307002031CBB28BC28DC28F2
:1001780041016408031DC128C228DB280230620639
:100188000319C728C828D4288B316E2380317308F7
:100198004201BB007208BA007108B9007008B800C3
:1001A80002304001EA006A084101E200DC28E2016D
:1001B800410164084001EA006A084101E300023095
:1001C8006206031DE828E928362942013B08F300A6
:1001D8003A08F2003908F1003808F0008B31C323DF
:1001E80080317308031D04297208031D042971084E
:1001F800031D042955307002031C032904293429DE
:1002080041016008031D09290A29342965080319D1
:100218000E2910290130112900304001EA006A082E
:100228004101E500650803191A291B291F29400106
:1002380094128E16312940019416033041016F063D
:10024800031D27292829312964304001EA006A085A
:10025800F10009308B319B2380314101E001E00A34
:100268004101EE016208031D3A293B298E296E08D7
:10027800031D3F2940298A2965080319442945296E
:100288008A2942013B08F3003A08F2003908F100D4
:100298003808F0008B31C32380317308031D5F29B0
:1002A8007208031D5F297108031D5F29333070022E
:1002B80003185F2960298A2941016108031D6529FE
:1002C800662972298B316E23803173084201B70089
:1002D8007208B6007108B5007008B400013040011A
:1002E800EA006A084101E10702306106031D7D2921
:1002F8007E298A294B08031D822983298A290130EE
:100308004001EA006A084101EF078A294101EE012C
:10031800EE0AE00142013708F3003608F20035081A
:10032800F1003408F0008B31C32380317308031DBA
:10033800A9297208031DA9297108031DA9293330A9
:100348007002031CA829A929AB294101E1018431C4
:100358003A2480318C31692480313330410167027D
:100368000318B729B829BE2902304001EA006A08F3
:100378004101EF004B08031DC229C329E82965087C
:100388000319C729C829CB298D317125803142012C
:100398003308F3003208F2003108F1003008F000A9
:1003A8008B31C32380317308031DE5297208031DAF
:1003B800E529F43070020130713B031CE429E5297A
:1003C800032A4101DF01032A8631232680314101B6
:1003D8005F08031DF029F129032A83313F23803167
:1003E8004101DF01DF0A8B316E238031730842013E
:1003F800B3007208B2007108B1007008B000410182
:100408006508031D082A092A85284B08031D0D2A9B
:100418000E2A85286208031D122A132A85286608D1
:10042800031D172A182A85285F08031D1C2A1D2A60
:1004380085288B31D9238031640063000100852829
:10044800803122284001D300FF30DC00FF30DD007E
:10045800CF01D001D101D2010030CE000030CD0053
:100468000030CC000030CB00DA01DB01122B400158
:100478005A08C3000130C335FF3E031D3F2A4335E8
:100488005307C400440886008701403FDE00413F0F
:10049800DF00423FE000433FE100FF305E05F0002F
:1004A80003305F05F1000A30F2000030F3008C31B0
:1004B800A224823171084001D9007008D8005E0872
:1004C800C3005F08C4006008C5006108C6000A30A0
:1004D800C636C50CC40CC30C890B6C2AFF30430507
:1004E800F00003304405F1003230F2000030F30030
:1004F8008C31A224823171084001E3007008E200C7
:100508000030A4000030A3000330A200E830A100AE
:100518005808F0005908F100F201F3016208F400EC
:100528006308F500F601F7018731CD27823173089A
:100538004001A8007208A7007108A6007008A5006D
:100548008F31A527823140012408D7002308D6001F
:100558002208D5002108D4000330C3000030C400AD
:100568000030C5000030C6005E08C7005F08C8003C
:100578006008C9006108CA001E30CA36C90CC80C18
:10058800C70C890BC12A4708C3054808C405490890
:10059800C5054A08C6054608450444044304031D26
:1005A800D62AD72A0E2B1330630288300319620229
:1005B800031CDF2AE02A0E2B2E306302E1300319D8
:1005C8006202031CE82AE92AEA2A0E2B57084E027F
:1005D800031DF82A56084D02031DF82A55084C0237
:1005E800031DF82A54084B020318FB2AFC2A0E2B79
:1005F8005908D0005808CF006308D2006208D1001B
:100608005708CE005608CD005508CC005408CB003A
:10061800DC01DD010130DA070030DB3D5B08803AA0
:10062800C30080304302031D1B2B41085A02031CE0
:100638001E2B1F2B3B2A40015C085D04031D252B44
:10064800262B3A2B5008AD004F08AC005208AF00DB
:100658005108AE000330C3004308B0008431BA2407
:10066800823140012D08DD002C08DC005D08C20045
:100678005C08C10008000E304001E4006408A100D5
:10068800A030E5006508A20028308C311F24833192
:10069800400121082204031D522B532B392C410100
:1006A8002018572B582B592B392C863194268331F7
:1006B8004001250826040319622B632B642B392C6F
:1006C80016304001E4006408A100A030E500650888
:1006D800A20028308C311F248331400121082204D4
:1006E8000319772B782B792B392C410120197D2B75
:1006F8007E2B7F2B642B31304001E4006408A1007D
:10070800C830E5006508A20028308B31EF2383311B
:100718004001210822040319922B932B942B392C86
:10072800410149084001E500410148084001E40051
:10073800650E0F39E400E50107306405E600003076
:100748006505E700660867040319AB2BAC2B642B1F
:100758000F30410148054001E400003041014905DE
:100768004001E500640365040319BB2BBC2BBD2BBA
:10077800642B3030E4006408A100A030E50065086F
:10078800A20028308C311F24833140012108220423
:100798000319CF2BD02BD12B392C4101490840010B
:1007A800E500410148084001E400650E0F39E40006
:1007B800E50107306405E60000306505E700E63529
:1007C800E70DE635E70D410120084001E800E901A1
:1007D80067086906031DF22B660868060319F52BDE
:1007E800F62BF72B392C3330E4006408F400A030E2
:1007F800E5006508F500410149084001E7004101AD
:1008080048084001E600670E0F39E600E7010730A7
:100818006605E80000306705E900E835E90DE835C8
:10082800E90D6808F6006908F70028308531B02519
:100838008331740875040319222C232C242C392C99
:10084800410149084001E500410148084001E40030
:10085800650E0F39E400E50164080739E60066080B
:10086800C100A03082312622833108004101660888
:10087800031D3F2C402C5B2C8C31C12484319130DA
:10088800FC007C08F10002308B319B2384318B31D2
:100898006E23843173084201AF007208AE007108FC
:1008A800AD007008AC004101E601E60AB92C660308
:1008B800031D5F2C602C952C42012F08F3002E0895
:1008C800F2002D08F1002C08F0008B31C32384318D
:1008D8007308031D7B2C7208031D7B2C7108031DF4
:1008E8007B2C50307002031C7A2C7B2CB92C0E30D8
:1008F8008D314C2584317308FC007C084101E700E8
:100908000230FC007C08E6008B316E2384317308CA
:100918004201AF007208AE007108AD007008AC006B
:10092800B92C02306606031D9A2C9B2CB62C42016A
:100938002F08F3002E08F2002D08F1002C08F00013
:100948008B31C32384317308031DB62C7208031D31
:10095800B62C7108031DB62C14307002031CB52C7C
:10096800B62CB92C4101E601B92C08004001300829
:100978000319BF2CC02CC62C04303002031CC52C14
:10098800C62CCB2CFF30AC00FF30AD00362D3230FA
:10099800F0000030F1002F08F3002E08F2008D312E
:1009A800F5258431FF3070054001B1000330710531
:1009B800B2003108B3003208B400B501B6010A30FC
:1009C800B335B40DB50DB60D890BE42C0A30F00023
:1009D8000030F1002D08F3002C08F2008D31F525C8
:1009E8008431FF3070054001B70003307105B8004D
:1009F8003708B9003808BA00BB01BC01330839040C
:100A0800BD0034083A04BE0035083B04BF00360870
:100A18003C04C0003008B1000130B135FF3E031D71
:100A2800112D3135813EB2003208A1004008A500E1
:100A38003F08A4003E08A3003D08A20028308C31DE
:100A48000724843140012108220403192C2D2D2D5F
:100A58002E2DC62C86319426843140012608AD00FF
:100A68002508AC000800410167084001AB002B08CD
:100A7800B30063303302031C422D432D472D6230EF
:100A8800AB002B08B3003308AB00AC012B08A50062
:100A98002C08A600A7016230AD002D08A800A90106
:100AA8007F30AE002E08AA008D31282585314001FF
:100AB800AF002F08B300403033020318642D652DB2
:100AC800862D3308AB00AC012B08A5002C08A60026
:100AD800A7013F30AD002D08A800A901FF30AE00E6
:100AE8002E08AA008D31282585314001AF002F0836
:100AF800B300460195014001330846019900FF30D3
:100B08009D00AF2D3F303302031C8B2D8C2DAF2D54
:100B18003308AB00AC012B08A5002C08A6003F3019
:100B2800AD002D08A7007F30AE002E08A800A9014F
:100B3800FF30AF002F08AA008D31282585314001EC
:100B4800B0003008B30046019501FF30990040011C
:100B5800330946019D000800F9007508F800780877
:100B6800FA007A08031DB92DBA2DBF2DFF30F40005
:100B7800FF30F500222E8B318F2385318B313723BF
:100B8800853179358B31AF2385317108FC007008C8
:100B9800FB007B087C04031DD22DD32DDB2D7408AC
:100BA8008B31AF2385317108FC007008FB007B088E
:100BB8007C04031DE02DE12DE42D8B31312385319B
:100BC8007B087C04031DE92DEA2DF32D0314790D10
:100BD8008B31AF2385317108FC007008FB007B085E
:100BE8007C04031DF82DF92D1B2E0F2E7608770493
:100BF8000319FF2D012E0130022E00308C314F24B5
:100C08008531F8007A08860087017808810001306C
:100C1800F8007808FA070130F6020030F73B760A48
:100C2800031D1A2E770A031D1A2E1B2EFA2D8B313F
:100C38003D2385317C08F5007B08F400080042015B
:100C48002708F3002608F2002508F1002408F00020
:100C58008B31C32386317308031D3E2E7208031D92
:100C68003E2E7108031D3E2E02307002031C3D2EDD
:100C78003E2E932E8B316E23863173084201A700D6
:100C88007208A6007108A5007008A40040016E0A49
:100C9800031D4F2E502E512EEC0102306E02031808
:100CA800562E572E592EEC01EC0A6C03031D5D2EAF
:100CB8005E2E632E0130F8007808EE07872E6C0848
:100CC800031D672E682E872E0130EE02872E4601FF
:100CD8009501990140016E0846019D00932E460139
:100CE800950140016E08460199006E2E4601950156
:100CF80040016E08460199009D01932E4601950119
:100D080099019D01932E41014B08013A03196B2E5D
:100D1800033A0319732E013A03197A2E822E08001A
:100D280023304001A7002708A100A201A20A283009
:100D38008C313724863140012208AB002108AA00F3
:100D48002A082B04031DA92EAA2ECD2E2F30A7006A
:100D58002708A1002930A8002808A20028308C31D3
:100D68001F24863140012208AB002108AA002A0866
:100D78002B04031DC02EC12ECD2E253029060319A4
:100D8800C62EC72ECD2E21302906031DCC2ECD2EE2
:100D9800AA2E2A082B04031DD22ED32EE02E0230B1
:100DA8004001A8001930A7008130890BD92EA70B64
:100DB800D92EA80BD92E003240012A082B04031D76
:100DC800E62EE72EF52E2330A7002708A100A20162
:100DD80028308C313724863140012208AB002108A5
:100DE800AA002A082B040319FA2EFB2E002FFF3025
:100DF800A500FF30A600022FA501A60108004201A8
:100E08002B08F3002A08F2002908F1002808F0004E
:100E18008B31C32387317308031D1E2F7208031DEE
:100E28001E2F7108031D1E2F02307002031C1D2F78
:100E38001E2F6C2F8B316E23873173084201AB0054
:100E48007208AA007108A9007008A80040016F0A7A
:100E5800031D2F2F302F3C2FEF010130F8007808A9
:100E6800ED0703306D02031C3A2F3B2F3C2FED0199
:100E78000130F8007808EF076D08031D442F452F4F
:100E88004D2F6F094601950040016F0846019900F2
:100E98009D0140016D03031D522F532F5D2F460105
:100EA800950140016F094601990040016F0846010C
:100EB8009D00023040016D06031D632F642F6C2FC7
:100EC8006F0846019500990140016F0946019D0090
:100ED80008004001A201F71F722F732F7A2FF6091D
:100EE800F709F60A0319F70AA201A20AF91F7D2FCA
:100EF8007E2F872FF809F909F80A0319F90A013032
:100F0800FA007A08A206A301A40176087704031957
:100F18008E2F8F2FBE2FA101A10A9B2F0130F635EE
:100F2800F70D890B932F0130FA007A08A107F71FF4
:100F38009E2F9F2F922F0130A335A40D890BA02F30
:100F480077087902031DAA2F76087802031CAD2FB3
:100F5800AE2FB32F7608F8027708F93B2314013037
:100F6800F736F60C890BB42F0130A102031DBD2FF3
:100F7800BE2F9F2F22080319C22FC32FC82FA309E2
:100F8800A409A30A0319A40A2408F7002308F600F1
:100F980008000030FB000030FA000030F900003093
:100FA800F800701CD82FD92FE12F7408F80775089E
:100FB800F93D7608FA3D7708FB3D0130F435F50D2B
:100FC800F60DF70D890BE22F0130F336F20CF10C18
:100FD800F00C890BE92F7308720471047004031D67
:100FE800F62FF72FD52F7B08F3007A08F20079083F
:080FF800F1007808F000080088
:10163A004301911211160800430191161116080070
:10164A008B3183238B314301111408008B3183239F
:10165A008B31430111150800430191148B318F23FB
:10166A008B310800430111148B318F238B31080011
:10167A00430111158B318F238B31080064008001DF
:10168A000131890B442B0034FE0012001E00FE0BB0
:10169A004A2B003455307D018F00AA308F008F010C
:1016AA000800F0008B3183238B31700843018C00D2
:1016BA00080055307D018F00AA308F0001308F005D
:1016CA00080001340134013406343A340134013457
:1016DA00023442014308F3004208F2004108F100D3
:1016EA004008F000080001340A340134013401349E
:1016FA0016340334013460340534013443010F19BC
:10170A00872B882B832B11081F39031D8D2B8E2BBA
:10171A00832B080043010F19932B942B8F2B11084D
:10172A001F39031D992B9A2B8F2B0800F2008B313E
:10173A0025238B31D4308B3156238B3172088B3170
:10174A0056238B3171088B3156238B318B312B23E6
:10175A008B310800F300730843018C008B318F230F
:10176A008B314301111BBA2BBB2BBE2BF001F101AC
:10177A00C22BFF30F000FF30F10008007008420170
:10178A004002F4007108413BF5007208423BF60042
:10179A007308433BF7007708F3007608F2007508F0
:1017AA00F1007408F00008004601950199019D01B5
:1017BA0096139A139E1340010E158E150E168B3131
:1017CA004F238B317E01A201A301A4018B315E2339
:1017DA008B310800FD0040012108A3002308F40012
:1017EA002208A4002408F5000230F6000030F700B1
:1017FA007D088531B0258B3175084001A200740837
:10180A00A1000800FD0040012108A6002608F400F6
:10181A002230A7002708F5000430F6000030F70050
:10182A007D088F3150278C3175084001A200740859
:10183A00A1000800FD0040012108A3002308F400CC
:10184A002208A4002408F5000130F6000030F70051
:10185A007D088531B0258C3175084001A2007408D5
:10186A00A1000800FD0040012108A3002308F4009C
:10187A002230A4002408F5000130F6000030F700F9
:10188A007D088F3150278C3175084001A2007408F9
:10189A00A1000800F100430191158B318F238C318F
:1018AA0043010C08F0007008F2008B318F238C3151
:1018BA00710C4301031C91120318911611168B31F6
:1018CA008F238C317208080004308C31E1248C316A
:1018DA0000307102DE3003197002031C752C762C5D
:1018EA00822C4101E501400194166430F500750827
:1018FA00F10009308B319B238C310800F1008B31C8
:10190A0083238C31430191158B3183238C3143011D
:10191A000C08F0007008F2008B3183238C317108B7
:10192A000319982C992C9D2C8B3121238C31A02CB6
:10193A008B311D238C3172080800F401F501701CEB
:10194A00A72CA82CAC2C7208F4077308F53D0130BB
:10195A00F235F30D890BAD2C0130F136F00C890B01
:10196A00B22C70087104031DBB2CBC2CA42C750866
:10197A00F1007408F00008000B308D314C258C31D1
:10198A007308F9007908FB007B08F9000430F9367E
:10199A00890BCC2C79080739FA007A084101CA0068
:1019AA007B08F9000230F936890BD82C79080339FB
:1019BA00FA007A08CB000800F400603041019E006A
:1019CA007408F2000130F235FF3E031DE82C72352F
:1019DA0001389D003430F200F230890BF22CF20B00
:1019EA00F22C41019D149D18FB2CFC2CF82C1C0890
:1019FA00F200F3017208F0007308F10008007A306F
:101A0A00F00070084101DE000630F0007008DD00C9
:101A1A003130F0007008DC001A30F0007008DB008A
:101A2A006030F0007008DA001330F0007008D90056
:101A3A005830F0007008D800DD30F0007008D70088
:101A4A00D601D60A0800400127082802F600F70145
:101A5A00031CF7032708FB00FC017B082502F000A2
:101A6A007C08263BF10029082A02F200F301031C34
:101A7A00F3038C31A2248D317108F9007008F80043
:101A8A0087316D278D317608400129070800F70054
:101A9A008B3125238D31D4308B3156238D31770804
:101AAA008B3156238D318B3125238D31D5308B31B6
:101ABA0056238D3101308C3183248D31F500750820
:101ACA00F8008B312B238D317808F500F601750863
:101ADA00F3007608F400080041016F08031D762D13
:101AEA00772D7C2D4601950199019D019A2D6F0351
:101AFA00031D802D812D852D873103278D319A2D48
:101B0A0002306F06031D8A2D8B2D8F2D85313725C7
:101B1A008D319A2D03306F06031D942D952D992D25
:101B2A008E3131268D319A2DEF01080051018C1327
:101B3A00033050019200FF3040019200FF309400C0
:101B4A007E01B801CE0138162030B900CF304401E9
:101B5A008E050E118E148F1304309100FE308D0005
:101B6A00CC308C004E011A1444010E144E01161684
:101B7A0020307E01BD002030BE00BF018B170B173D
:101B8A000800283043019000910140012E08B2005C
:101B9A002F08B3003008B4003108B5000230B2355E
:101BAA00B30DB40DB50D890BD42D3508A400340836
:101BBA00A3003308A2003208A1000130A800E830CF
:101BCA00A7004830A6000030A5008F31A5278D3127
:101BDA0040012108FF3E43018D0080308F0008003C
:101BEA00F501F601700871040319FC2DFD2D2C2E48
:101BFA00F701F70A092E0130F035F10D890B012E94
:101C0A000130F4007408F707F11F0C2E0D2E002E78
:101C1A000130F535F60D890B0E2E71087302031D7E
:101C2A00182E70087202031C1B2E1C2E212E7008FF
:101C3A00F2027108F33B75140130F136F00C890B8E
:101C4A00222E0130F702031D2B2E2C2E0D2E760884
:101C5A00F1007508F000080042012308F300220889
:101C6A00F2002108F1002008F0008B31C3238E31E5
:101C7A007308031D4C2E7208031D4C2E7108031D98
:101C8A004C2E32307002031C4B2E4C2E632E400118
:101C9A006B080319512E532E0130542E0030F800D0
:101CAA007808EB008B316E238E3173084201A30052
:101CBA007208A2007108A1007008A00040016B0818
:101CCA000319682E692E6F2E460195019901FF307E
:101CDA009D00732E4601950199019D0108008B31E3
:101CEA004F238E310B307E01A2000C30A3000D3041
:101CFA00A4008B315E238E3146019601FF304501E7
:101D0A008D00460195013F309400803096004001D5
:101D1A001411F030460196009A0199013F3098005B
:101D2A0080309A0040019411F03046019A009E01D9
:101D3A009D013F309C0080309E0040011412F0301B
:101D4A0046019E000330450190008E170E128E1236
:101D5A000E170E148E140E158E158C01FF308D0081
:101D6A004E0190100800400114149414F101F72E4A
:101D7A000130F0007008F1078E18C42EC52ED92E36
:101D8A0014100E100B30F0006230890BCA2EF00BC3
:101D9A00CA2E0032400114140B30F0006230890B55
:101DAA00D42EF00BD42E003240018E1CDD2EDE2EF6
:101DBA00C12E94108E100B30F0006230890BE32E86
:101DCA00F00BE32E0032400194140B30F000623025
:101DDA00890BED2EF00BED2E003240018E1CF62EF3
:101DEA00F72EC12E0A307102031CFC2EFD2EBD2EC9
:101DFA00080041015E08F3007308F10000308B31DE
:101E0A009B238E3141015D08F3007308F100013014
:101E1A008B319B238E3141015C08F3007308F1007A
:101E2A0002308B319B238E3141015B08F30073082A
:101E3A00F10003308B319B238E3141015A08F300A4
:101E4A007308F10004308B319B238E31410159080C
:101E5A00F3007308F10005308B319B238E31410169
:101E6A005808F3007308F10006308B319B238E313A
:101E7A0041015708F3007308F10007308B319B23A7
:101E8A008E3141015608F3007308F10008308B3196
:101E9A009B238E310800F9007508F8007808FA00CB
:101EAA007A08031D592F5A2F5F2FFF30F400FF3095
:101EBA00F500A42F8B318F238F318B3137238F314C
:101ECA0079358B31AF238F317108FC007008FB0024
:101EDA007B087C04031D722F732F8B2F74088B31A0
:101EEA00AF238F317108FC007008FB008B2F7A0832
:101EFA008600870101088B31AF238F317108FC00FE
:101F0A007008FB000130F8007808FA077B087C04A7
:101F1A00031D902F912F9D2F0130F6020030F73BC1
:101F2A00760A031D9C2F770A031D9C2F9D2F7C2F59
:101F3A008B313D238F317C08F5007B08F4000800C3
:101F4A0000304001AC000030AB000030AA00003085
:101F5A00A90024082304220421040319B52FB62F4B
:101F6A00F72FAD01AD0AC42F0130A135A20DA30D83
:101F7A00A40D890BBA2F0130FC007C08AD07A41F01
:101F8A00C72FC82FB92F0130A935AA0DAB0DAC0D3B
:101F9A00890BC92F24082802031DDD2F23082702D5
:101FAA00031DDD2F22082602031DDD2F210825022D
:101FBA00031CE02FE12FEA2F2108A5022208A63BE5
:101FCA002308A73B2408A83B29140130A436A30CF4
:101FDA00A20CA10C890BEB2F0130AD02031DF62FC9
:101FEA00F72FC82F2C08A4002B08A3002A08A20048
:061FFA002908A100080007
:020000040001F9
:0A000E008C3FFE37ED07FF1FFF3F98
:00000001FF
