:020000040000FA
:04000000803118280B
:100008007E14803145018C014E01901080312F20E3
:1000180080317E01BF1240014C08031D14281528A9
:10002800162863007E10090080311A2887310B27B3
:100038008031CD00FC01FD01C201C301C401C5012D
:10004800C601C701C801C901CA01CB01CC017E1094
:1000580040018231C62AFB01FA0144284E01901C56
:10006800362837283C280130F9007908FB0790101A
:1000780078307B02031C412842284428FA01FA0AF6
:1000880040018C1A482849284E287A0803194D2817
:100098004E28322878307B02031C532854288328A2
:1000A8004C08031958285A2801305B280030F900F9
:1000B8007908CC004C03031D622863286728863121
:1000C8007B2680317D284C08031D6B286C287D28F1
:1000D800873108278031033A031D7328742879284B
:1000E800013086313E2680317D28003086313E261B
:1000F800803140018C1E812882287D28AB2802305F
:100108007B02031C88288928AB284C0803198D28F2
:100118008E28AB284808031992289328AB28013069
:10012800F9007908CA074A088631D726803187310D
:1001380008278031F90004307902031CA428A52877
:10014800AB284001CA014A088631D7268031080009
:1001580040014408B7003708BF0063303F02031C62
:10016800B628B728BB286230B7003708BF003F0859
:10017800B700B8013708AF003808B000B1016230E5
:10018800B9003908B200B3017F30BA003A08B400A8
:100198008431E52480314001BB003B08BF0040307A
:1001A8003F020318D828D928FA283F08B700B80111
:1001B8003708AF003808B000B1013F30B90039083E
:1001C800B200B301FF30BA003A08B4008431E52424
:1001D80080314001BB003B08BF004601950140014A
:1001E8003F0846019900FF309D0023293F303F0218
:1001F800031CFF28002923293F08B700B801370846
:10020800AF003808B0003F30B9003908B1007F307E
:10021800BA003A08B200B301FF30BB003B08B40093
:100228008431E52480314001BC003C08BF00460110
:100238009501FF30990040013F0946019D000800E3
:100248004001AC01A71F29292A293129A609A70994
:10025800A60A0319A70AAC01AC0AA91F3429352933
:100268003E29A809A909A80A0319A90A0130AA0060
:100278002A08AC06AD01AE01260827040319452952
:1002880046297529AB01AB0A52290130A635A70DBD
:10029800890B4A290130AA002A08AB07A71F55294C
:1002A800562949290130AD35AE0D890B5729270844
:1002B8002902031D612926082802031C64296529CF
:1002C8006A292608A8022708A93B2D140130A73659
:1002D800A60C890B6B290130AB02031D7429752903
:1002E80056292C08031979297A297F29AD09AE09DD
:1002F800AD0A0319AE0A2E08A7002D08A6000800AB
:1003080000304001AC000030AB000030AA000030E3
:10031800A9002308220421042004031994299529FB
:10032800D629AD01AD0AA3290130A035A10DA20D32
:10033800A30D890B99290130A8002808AD07A31F30
:10034800A629A72998290130A935AA0DAB0DAC0D0E
:10035800890BA82923082702031DBC292208260285
:10036800031DBC2921082502031DBC2920082402DD
:10037800031CBF29C029C9292008A4022108A53BBC
:100388002208A63B2308A73B29140130A336A20C58
:10039800A10CA00C890BCA290130AD02031DD52977
:1003A800D629A7292C08A3002B08A2002A08A100F7
:1003B8002908A00008007C0A031DE329E429E6298E
:1003C8004001CD0102307C020318EB29EC29EF290A
:1003D8004001CD01CD0A40014D03031DF429F52943
:1003E800FA290130A0002008FC07012A4D08031D46
:1003F800FE29FF29012A0130FC0234304001A00007
:10040800F130890B052AA00B052A0032400142036E
:10041800031D0F2A102A162A4601950199017C0806
:100428009D00312A02304206031D1B2A1C2A212A5C
:10043800460195017C089900132A03304206031DE2
:10044800262A272A2D2A460195017C0899009D0114
:10045800312A4601950199019D01080040014C0887
:100468000319372A382A7E2A4E01101C3C2A3D2AB5
:100478007E2A101001304001AC002C08CB070A304E
:100488004B02031C482A492A7E2ACB01853175254F
:1004980082314001AC002C08C70047080319552ACF
:1004A800562A582AC8015A2AC801C80A8531F3258C
:1004B80082314001AC002C08C90049088631C926A0
:1004C8008231873105278231873105278231400102
:1004D800AC0033302C020318722A732A7B2A0230AC
:1004E800AC002C08CA004A088631C22682318631FF
:1004F80068268231080040014608031D842A852A9F
:100508008A2A4601950199019D01C52A4603031DC2
:100518008E2A8F2A932A83310C238231C52A0230EE
:100528004606031D982A992A9D2A8031AC208231DB
:10053800C52A03304606031DA22AA32AC52A460156
:1005480095019901FF309D0011304001C1003C30F8
:10055800C000CB30890BAE2AC00BAE2AC10BAE2A25
:100568004601950199019D0111304001C1003C30BF
:10057800C000CB30890BBE2AC00BBE2AC10BBE2AD5
:10058800C52A08008331902382318631D0268231F2
:1005980011307D01C60016307E01A10010307D01AA
:1005A800C50015307E01A0008631AA2682310030B0
:1005B8004001B1000130B0008630AF00A030AE007D
:1005C80084316724823183315223823185310A256F
:1005D80082318331FF238231630040014C03031DC4
:1005E800F62AF72A082B8231322282314001470845
:1005F8000319FF2A002B042B8131DF218231F12AD4
:1006080082317F228231F12A6300F12A8031182851
:100618007D0A031D102B112B1E2BFD0101304001FB
:10062800A0002008C50703304502031C1C2B1D2B06
:100638001E2BC50101304001A0002008FD077D30B8
:100648004001A000AB30890B272BA00B272B0032D1
:1006580040014508031D312B322B382B7D094601FB
:1006680095007D0899009D0140014503031D3D2B20
:100678003E2B442B460195017D0999007D089D007C
:10068800023040014506031D4A2B4B2B512B7D0898
:100698004601950099017D099D0008007A304001C6
:1006A800A3002308A10000308631272683311A30A1
:1006B8004001A3002308A100033086312726833197
:1006C80060304001A3002308A100043086312726AA
:1006D8008331CD304001A3002308A10007308631C3
:1006E8002726833135304001A3002308A1000230BA
:1006F800863127268331FF304001A3002308A1005B
:100708000D308631272683314001A101A10A083026
:1007180086312726833108000330500192004401B6
:100728000E10FF3040019200FF30940010307E011F
:10073800B800CE012030B9000330450190008E1773
:100748000E128E120E170E148E140E158E158C01A5
:10075800FF308D004E019010353044018E008F1708
:1007680003309100FF308D00FF308C004E011A10CD
:10077800161620307E01BD002030BE00BF01C830F3
:100788008B008B170B1708007A30F3007308F10001
:1007980000308631542683311A30F3007308F10093
:1007A80003308631542683316030F3007308F1003A
:1007B8000430863154268331CD30F3007308F100BC
:1007C80007308631542683313530F3007308F10041
:1007D8000230863154268331FF30F3007308F1006C
:1007E8000D30863154268331F101F10A0830863103
:1007F8005426833108008631D02683310B307E01A0
:10080800A2000C30A3000D30A4008631AA26833143
:1008180046019601FF3045018D00460195013F30A4
:1008280094008030960040011411E0304601960093
:100838009A0199013F30980080309A004001941144
:10084800E03046019A009E019D013F309C008030B7
:100858009E0040011412E03046019E0008008631D7
:10086800DE2684310B307E01A2000C30A3000D304F
:10087800A4008631B226843146019601FF30450135
:100888008D00460195013F3094008030960040016C
:100898001411E030460196009A0199013F30980002
:1008A80080309A0040019411E03046019A009E0180
:1008B8009D013F309C0080309E0040011412E030C2
:1008C80046019E0008002830430190009101400134
:1008D8002E08B2002F08B3003008B4003108B50064
:1008E8000230B235B30DB40DB50D890B752C350832
:1008F800A3003408A2003308A1003208A000013088
:10090800A700E830A6004830A5000030A4008131D7
:100918008421843140012008FF3E43018D0080304E
:100928008F0008004001A7008631EB268431D430BF
:100938008631A0268431400127088631A0268431DB
:100948008631EB268431D5308631A02684310130BA
:1009580085312F2584314001A5002508A80086315E
:10096800E526843140012808A500A6012508A30032
:100978002608A40008004001A5008631EB26843132
:1009880050308631A0268431400125088631A026C2
:100998008431400121088631A02684314001220893
:1009A8008631A0268431400123088631A02684316F
:1009B800400124088631A02684318631E526843119
:1009C8000800400131083202A600A701031CA70352
:1009D8003108B500B60135082F02A0003608303BB3
:1009E800A10033083402A200A301031CA30385312C
:1009F8009625843140012108A9002008A8008131EA
:100A08002421843140012608330708002C30400196
:100A1800A6002608A100D130A7002708A2000230AE
:100A2800A8002808A300A40189308431BF24853197
:100A3800C8304001A6002608A100C030A70027083A
:100A4800A2000330A8002808A300A4018D30843137
:100A5800BF24853108004001A100863188268531F0
:100A68004301911586318826853143010C084001E0
:100A7800A0002008A200863188268531400121087F
:100A88000319472D482D4C2D8631FD2685314F2DD4
:100A98008731012785314001220808002C30F600F3
:100AA8007608F100D130F7007708F2000230F8003C
:100AB8007808F300F40189308531B6258531C830CE
:100AC800F6007608F100C030F7007708F20003302E
:100AD800F8007808F300F4018D308531B6258531AA
:100AE80008000B3084319624853140012308A90081
:100AF8002908AB002B08A9000430A936890B812DE1
:100B080029080739AA002A08C3002B08A9000230BF
:100B1800A936890B8C2D29080339AA002A08C20096
:100B2800430808004001A401A501201C9C2D9D2D0F
:100B3800A12D2208A4072308A53D0130A235A30D45
:100B4800890BA22D0130A136A00C890BA72D2008F6
:100B58002104031DB02DB12D992D2508A1002408CD
:100B6800A0000800F5008631F7268531503086311F
:100B7800BA26853175088631BA26853171088631DD
:100B8800BA26853172088631BA26853173088631CE
:100B9800BA26853174088631BA2685318631F12620
:100BA80085310800603041019E0011309D003430CD
:100BB8004001A200F130890BDF2DA20BDF2D00329E
:100BC80041019D149D18E92DEA2DE62D1C084001D0
:100BD800A200A3012208A0002308A1000800913068
:100BE8004001A9002908A100023086312726853155
:100BF80015304001AA004B30A900BE30890B022EE7
:100C0800A90B022EAA0B022E00000E308431962466
:100C180085314001230808004001A40094164601CC
:100C280096139A139E134001240803191C2E1D2E97
:100C3800252E6430A3002308A10009308631272619
:100C48008631630008004001A2008631EB26863118
:100C5800D4308631A0268631400122088631A0266C
:100C68008631400121088631A02686318631E52665
:100C780086310800F40040019416460196139A1331
:100C88009E1374080319492E4A2E522E6430F3001D
:100C98007308F10009308631542686316300080054
:100CA800F2008631F7268631D4308631BA2686316D
:100CB80072088631BA26863171088631BA2686319D
:100CC8008631F126863108008531D62586310030F7
:100CD80040012102DE3003192002031C742E752EF8
:100CE8007A2ECC01013086311026863108008331F6
:100CF800C8238631853152258631400194128E16DB
:100D0800843133248631080043010F198C2E8D2E2F
:100D1800882E11081F39031D922E932E882E080045
:100D280043010F19982E992E942E11081F39031D6F
:100D38009E2E9F2E942E08004001A0008631882602
:100D480086314001200843018C00080055307D01A0
:100D58008F00AA308F0001308F00080055307D01C8
:100D68008F00AA308F0001308F000800F000863114
:100D780094268631700843018C0008004001A100C8
:100D88002108A0002008C60008004001A100210891
:100D9800A0002008C400080055307D018F00AA304B
:100DA8008F008F010800F1007108F0007008400101
:100DB800C600080055307D018F00AA308F008F01D2
:100DC80008008631882686314301111508008631CE
:100DD800882686314301111408008631942686310D
:100DE80043011115080086319426863143011114F8
:100DF80008004301911611160800430191121116BB
:100E08000800400144080800400146080800013471
:020000040001F9
:0A000E009C3FFE379F3FFF3FFF3F7E
:00000001FF
