:020000040000FA
:1000000000008031682802347E1480314E01101CBB
:100010000A280B281A281010FE3044018D00CC301D
:100020008C0001304101E3070030E43D0030E53D44
:100030000030E63D7E01BF1E1E281F282028BF126B
:1000400040018C1A2428252839287D08031D2928D9
:100050002A2836288A31D322803173084201BB0016
:100060007208BA007108B9007008B800FD01FD0AF5
:1000700066287D0803193D283E28652842013B0873
:10008000F3003A08F2003908F1003808F0008B312B
:100090002A23803173084201B7007208B600710844
:1000A000B5007008B4003708031D62283608031D28
:1000B00062283508031D622805303402031C6128BC
:1000C000622865284001EA01EA0AFD017E10090064
:1000D00040010308A00080316D2880310320803169
:1000E000EF00963084008A308500EC3086000030C6
:1000F000870004308A31BE2280310B3084008B307F
:10010000850045308600013087000E308A31BE22DE
:100110008031F801F901FA01FB01FC01FD016030B9
:100120008400003085000F308A31B8228031E330FE
:1001300084000030850009308A31B82280312030B7
:1001400084000130850025308A31B82280317E104C
:1001500040018231022A4101A800FF30B100FF3086
:10016000B200A401A501A601A7010030A300003040
:10017000A2000030A1000030A000AF01B001C629EC
:1001800041012F084001D1000130D135FF3E031D50
:10019000C5285135410128074001D2005208860088
:1001A0008701403F4101B300413FB400423FB500E9
:1001B000433FB600FF3033054001A1000330410149
:1001C00034054001A2000A30A3000030A4008C31A5
:1001D00023248031400122084101AE004001210862
:1001E0004101AD0033084001D10041013408400114
:1001F000D200410135084001D300410136084001D9
:10020000D4000A30D436D30CD20CD10C890B02297D
:10021000FF305105A10003305205A2003230A30087
:100220000030A4008C312324803140012208410198
:10023000B800400121084101B70000304001B00082
:100240000030AF000330AE00E830AD0041012D08B2
:100250004001A10041012E084001A200A301A40118
:10026000410137084001A500410138084001A600BE
:10027000A701A8018D31A625803140012408B400D2
:100280002308B3002208B2002108B1008F314827AB
:100290008031400130084101AC0040012F0841018C
:1002A000AB0040012E084101AA0040012D08410188
:1002B000A90003304001D1000030D2000030D3004B
:1002C0000030D400410133084001D5004101340819
:1002D0004001D600410135084001D70041013608F0
:1002E0004001D8001E30D836D70CD60CD50C890B5F
:1002F00073295508D1055608D2055708D305580863
:10030000D4055408530452045104031D8829892933
:10031000C129133041013802883003193702031C08
:1003200092299329C1292E303802E130031937026E
:10033000031C9B299C299D29C1292C082302031DEC
:10034000AB292B082202031DAB292A082102031D19
:10035000AB29290820020318AE29AF29C1292E088C
:10036000A5002D08A4003808A7003708A6002C080F
:10037000A3002B08A2002A08A1002908A000B101AF
:10038000B20101304101AF070030B03D3008803A82
:100390004001D10080305102031DD1294F08410195
:1003A0002F02031CD429D529C02841013108320469
:1003B000031DDB29DC29FA2925084001BB00410186
:1003C00024084001BA00410127084001BD00410155
:1003D00026084001BC000330D1005108BE00853121
:1003E0003F25803140013B084101B20040013A08FD
:1003F0004101B10032084001D00041013108400103
:10040000CF0008008D314C2582318E315B26823140
:100410008A31C422823111307D01C60016307E013E
:10042000A10010307D01C50015307E01A0008A3189
:10043000CB22823100304001BE000530BD00573074
:10044000BC003030BB008D31772582318C31872460
:1004500082318E31F62682318E3117268231640048
:1004600040016A080319352A362A992A42013708B9
:10047000031D462A3608031D462A3508031D462A51
:1004800055303402031C452A462A692A40016B086C
:1004900003194B2A4D2A01304E2A0030DF005F0835
:1004A000EB006B080319552A562A592A94128E1606
:1004B000972A941603306F06031D5F2A602A972A35
:1004C0006430DF005F08A20009308B3140238231A5
:1004D000972A40016B0803196E2A6F2A972A420156
:1004E0003708031D7E2A3608031D7E2A3508031DA2
:1004F0007E2A3330340203187E2A7F2A972A40014D
:100500006E0A860087010108031D872A882A972A18
:1005100033306D0203188D2A8E2A932A0230DF00B1
:100520005F08EF00972A0130DF005F08EF07400106
:10053000EA0184311C2482318B31CE238231400187
:100540006E0A860087010108031DA72AA82AD42A5B
:100550006B080319AC2AAD2AB02A8D3122258231CD
:10056000420133084001A400420132084001A300C7
:10057000420131084001A200420130084001A100BF
:100580008B31E723823140012408031DD22A23083E
:10059000031DD22AF43021020130223B031CD12A50
:1005A000D22AF62AE901F62A8431BD24823140019B
:1005B0006908031DDC2ADD2AF62A833120238231D3
:1005C0004001E901E90A8B311923823140012408F5
:1005D0004201B300400123084201B2004001220859
:1005E0004201B100400121084201B00040016B0806
:1005F000031DFB2AFC2A2F2A6E0A860087010108A8
:10060000031D032B042B2F2A6A08031D082B092B1B
:100610002F2A8C1E0C2B0D2B2F2A6C08031D112B3F
:10062000122B2F2A6908031D162B172B2F2A8A310C
:10063000F32282316400630001002F2A8031682890
:100640000E304001D9005908AE00B930DA005A081E
:10065000AF0028308B319E23833140012E082F04B8
:10066000031D332B342B1B2C41013918382B392B0C
:100670003A2B1B2C8731282783314001330834045F
:100680000319432B442B452B1B2C16304001D9005A
:100690005908AE00B930DA005A08AF0028308B3163
:1006A0009E23833140012E082F040319582B592B08
:1006B0005A2B1B2C410139195E2B5F2B602B452BCC
:1006C00031304001D9005908AE00E130DA005A0853
:1006D000AF0028308B316E23833140012E082F0468
:1006E0000319732B742B752B1B2C410162084001DD
:1006F000DA00410161084001D9005A0E0F39D900D2
:10070000DA0107305905DB0000305A05DC005B08D0
:100710005C0403198C2B8D2B452B0F304101610597
:100720004001D9000030410162054001DA0059035F
:100730005A0403199C2B9D2B9E2B452B3030D9003E
:100740005908AE00B930DA005A08AF0028308B31B2
:100750009E23833140012E082F040319B02BB12BA7
:10076000B22B1B2C410162084001DA0041016108F3
:100770004001D9005A0E0F39D900DA010730590566
:10078000DB0000305A05DC00DB35DC0DDB35DC0D31
:10079000410139084001DD00DE015C085E06031DF1
:1007A000D32B5B085D060319D62BD72BD82B1B2C1C
:1007B0003330D9005908A500B930DA005A08A6002C
:1007C000410162084001DC00410161084001DB0099
:1007D0005C0E0F39DB00DC0107305B05DD0000300B
:1007E0005C05DE00DD35DE0DDD35DE0D5D08A700C4
:1007F0005E08A80028308531BC25833140012508DA
:1008000026040319042C052C062C1B2C410162081C
:100810004001DA00410161084001D9005A0E0F3948
:10082000D900DA0159080739DB005B08CF00B9307D
:100830008031AB208331080040016C08031D212C5E
:10084000222C482C8C31432484314001AF002F08E6
:10085000EE009130AF002F08A20002308B31402310
:1008600084318B3119238431400124084201AF00C7
:10087000400123084201AE00400122084201AD00C0
:10088000400121084201AC004001EC01EC0ABC2C03
:100890006C03031D4C2C4D2C912C42012F08400160
:1008A000A40042012E084001A30042012D0840018E
:1008B000A20042012C084001A1008B31E7238431C2
:1008C00040012408031D702C2308031D702C2208EE
:1008D000031D702C50302102031C6F2C702CBC2C7B
:1008E0000E308C31D024843140012408AF002F0811
:1008F000ED000230AF002F08EC008B31192384315A
:10090000400124084201AF00400123084201AE002B
:10091000400122084201AD00400121084201AC0023
:10092000BC2C02306C06031D962C972CBA2C42016D
:100930002F084001A40042012E084001A3004201FB
:100940002D084001A20042012C084001A1008B317A
:10095000E723843140012408031DBA2C2308031D1A
:10096000BA2C2208031DBA2C14302102031CB92C06
:10097000BA2CBC2CEC01BC2C080042012708400119
:10098000A400420126084001A300420125084001BD
:10099000A200420124084001A1008B31E7238431E9
:1009A00040012408031DE02C2308031DE02C22082D
:1009B000031DE02C02302102031CDF2CE02C3E2D15
:1009C0008B3119238431400124084201A7004001E2
:1009D00023084201A600400122084201A50040016F
:1009E00021084201A4004001630A031DF82CF92CE0
:1009F000FA2CE101023063020318FF2C002D022DB6
:100A0000E101E10A6103031D062D072D0C2D0130C4
:100A1000A9002908E307302D6108031D102D112DB1
:100A2000302D0130E302302D46019501990140013E
:100A3000630846019D003E2D460195014001630873
:100A400046019900172D46019501400163084601B2
:100A500099009D013E2D4601950199019D013E2D74
:100A60006E0A860087010108013A0319142D033A22
:100A700003191C2D013A0319232D2B2D08004001C9
:100A80003E080319442D452D4B2D04303E02031C16
:100A90004A2D4B2D502DFF30BA00FF30BB00BB2D2F
:100AA0003230A1000030A2003D08A4003C08A300A1
:100AB0008D31DA258531FF3040012105BF0003303B
:100AC0002205C0003F08C1004008C200C301C401A4
:100AD0000A30C135C20DC30DC40D890B692D0A3012
:100AE000A1000030A2003B08A4003A08A3008D3109
:100AF000DA258531FF3040012105C500033022058C
:100B0000C6004508C7004608C800C901CA01410817
:100B10004704CB0042084804CC0043084904CD00F8
:100B200044084A04CE003E08BF000130BF35FF3EF6
:100B3000031D962D3F35813EC0004008AF004E0892
:100B4000B3004D08B2004C08B1004B08B00028308B
:100B50008B318623853140012F0830040319B12DD4
:100B6000B22DB32D4B2D8731282785314001340814
:100B7000BB003308BA0008004001AA002608A900FB
:100B80002908AB002B08031DC62DC72DCC2DFF3027
:100B9000A500FF30A600362E8A31FF2285318A312A
:100BA000AC22853140012A358B31572385314001F4
:100BB0002208AD002108AC002C082D04031DE12DF6
:100BC000E22DEB2D25088B3157238531400122087A
:100BD000AD002108AC002C082D04031DF02DF12DD3
:100BE000F42D8A31A622853140012C082D04031DE5
:100BF000FA2DFB2D052E03142A0D8B315723853139
:100C000040012208AD002108AC002C082D04031D72
:100C10000A2E0B2E2E2E222E270828040319112E01
:100C2000132E0130142E00308C3105248531400103
:100C3000A9002B0886008701290881000130A9003E
:100C40002908AB070130A7020030A83B270A031D83
:100C50002D2E280A031D2D2E2E2E0C2E8A31B22267
:100C6000853140012D08A6002C08A500080042018E
:100C70002B084001A40042012A084001A3004201C0
:100C800029084001A200420128084001A1008B313F
:100C9000E723863140012408031D5A2E2308031D33
:100CA0005A2E2208031D5A2E02302102031C592EEF
:100CB0005A2EAF2E8B311923863140012408420170
:100CC000AB00400123084201AA0040012208420172
:100CD000A900400121084201A8004001640A031D47
:100CE000722E732E7F2EE4010130A9002908E2073D
:100CF00003306202031C7D2E7E2E7F2EE201013026
:100D0000A9002908E4076208031D872E882E902E6B
:100D100064094601950040016408460199009D015F
:100D200040016203031D952E962EA02E46019501CB
:100D300040016409460199004001640846019D0094
:100D4000023040016206031DA62EA72EAF2E6408B6
:100D50004601950099014001640946019D00080083
:100D600040016D08B8003808C00063304002031C21
:100D7000BA2EBB2EBF2E6230B8003808C000400823
:100D8000B800B9013808B0003908B100B2016230CA
:100D9000BA003A08B300B4017F30BB003B08B5008D
:100DA0008C31AB2486314001BC003C08C00040308F
:100DB00040020318DC2EDD2EFE2E4008B800B901DB
:100DC0003808B0003908B100B2013F30BA003A0823
:100DD000B300B401FF30BB003B08B5008C31AB243D
:100DE00086314001BC003C08C0004601950140012D
:100DF000400846019900FF309D00272F3F304002F8
:100E0000031C032F042F272F4008B800B90138080E
:100E1000B0003908B1003F30BA003A08B2007F3064
:100E2000BB003B08B300B401FF30BC003C08B50078
:100E30008C31AB2486314001BD003D08C000460125
:100E40009501FF3099004001400946019D000800CE
:100E500023304001B5003508AF00B001B00A28309A
:100E60008B31B623873140013008B9002F08B80014
:100E700038083904031D3D2F3E2F5B2F2F30B5005E
:100E80003508AE003730B6003608AF0028308B3159
:100E90009E23873140012F08B9002E08B80038087A
:100EA0003904031D542F552F5B2F21303706031DA6
:100EB0005A2F5B2F3E2F38083904031D602F612FF6
:100EC0006E2F02304001B6001930B5008130890B19
:100ED000672FB50B672FB60B672F0032400138081C
:100EE0003904031D742F752F832F2330B500350867
:100EF000AF00B00128308B31B62387314001300874
:100F0000B9002F08B800380839040319882F892F31
:100F10008E2FFF30B300FF30B400902FB301B40127
:100F200008004001AD01A81F962F972F9E2FA709FB
:100F3000A809A70A0319A80AAD01AD0AAA1FA12F83
:100F4000A22FAB2FA909AA09A90A0319AA0A0130DD
:100F5000AB002B08AD06AE01AF012708280403192A
:100F6000B22FB32FE22FAC01AC0ABF2F0130A7354F
:100F7000A80D890BB72F0130AB002B08AC07A81FB9
:100F8000C22FC32FB62F0130AE35AF0D890BC42F42
:100F900028082A02031DCE2F27082902031CD12F5F
:100FA000D22FD72F2708A9022808AA3B2E140130D8
:100FB000A836A70C890BD82F0130AC02031DE12FF6
:100FC000E22FC32F2D080319E62FE72FEC2FAE09D0
:100FD000AF09AE0A0319AF0A2F08A8002E08A70010
:100FE000080000340034B034AA34003445340034EE
:100FF0000034103440349C341C34FF3401343C340D
:10100000DF34023440340F34003432340034FC34E2
:10101000F134003419345634AF34FB3475345F3452
:10102000003400342D34F034203443340034503450
:02103000FB348F
:10151C00430191121116080043019116111608008F
:10152C00013406343A3401348A31E7228A314301DA
:10153C00111408008A31E7228A3143011115080081
:10154C00430191148A31FF228A310800430111149E
:10155C008A31FF228A310800430111158A31FF229A
:10156C008A310800640080010131890BB92A0034EA
:10157C00FE0012001E00FE0BBF2A003455307D0108
:10158C008F00AA308F008F01080055307D018F002D
:10159C00AA308F0001308F00080041016608F3006B
:1015AC006508F2006408F1006308F00008004001CF
:1015BC00A1008A31E7228A314001210843018C00C5
:1015CC00080043010F19EB2AEC2AE72A11081F39EE
:1015DC00031DF12AF22AE72A080046019501990118
:1015EC009D0196139A139E1340010E118E110E122B
:1015FC00080043010F19032B042BFF2A11081F3974
:10160C00031D092B0A2BFF2A080001340A3401346C
:10161C00013401341634033401346034053401349C
:10162C00013401340134410166084001A400410138
:10163C0065084001A300410164084001A20041017A
:10164C0063084001A1000800700841016302F40026
:10165C007108643BF5007208653BF6007308663B45
:10166C00F7007708F3007608F2007508F1007408AB
:10167C00F00008004001A3008A319A228B31D4304B
:10168C008A31DD228B31400123088A31DD228B31F6
:10169C00400122088A31DD228B318A31A0228B3124
:1016AC0008004001A400240843018C008A31FF2269
:1016BC008B314301111B632B642B682B4001A1015F
:1016CC00A2016D2BFF304001A100FF30A2000800E9
:1016DC004001B2002E08B0003008A5002F08B10060
:1016EC003108A6000230A7000030A800320885316E
:1016FC00BC258B3140012608AF002508AE00080040
:10170C004001B5002F08B4003408A5003030A60005
:10171C000030A7000430A8000030A90035088F3134
:10172C00A3278B3140012608B0002508AF00080024
:10173C004001B2002E08B0003008A5002F08B100FF
:10174C003108A6000130A7000030A800320885310E
:10175C00BC258B3140012608AF002508AE000800DF
:10176C004001B2002F08B1003108A5003030A600AE
:10177C000030A7000130A8000030A90032088F31DA
:10178C00A3278B3140012608B0002508AF000800C4
:10179C0004308C31F9248B31003040012202DE30D0
:1017AC0003192102031CDB2BDC2BE62BEB0194161B
:1017BC006430A6002608A20009308B3140238B31FF
:1017CC00080040012108410163024001A5002208E4
:1017DC004101643B4001A60023084101653B4001E7
:1017EC00A70024084101663B4001A8002808A4007A
:1017FC002708A3002608A2002508A1000800400124
:10180C00A200430191158A31FF228C3143010C084F
:10181C004001A1002108A3008A31FF228C31400134
:10182C00220C4301031C91120318911611168A31D4
:10183C00FF228C314001230808004001A501A601BC
:10184C00211C292C2A2C2E2C2308A5072408A63D64
:10185C000130A335A40D890B2F2C0130A236A10C1D
:10186C00890B342C21082204031D3D2C3E2C262CE4
:10187C002608A2002508A10008000B308C31D024CA
:10188C008C3140012408AA002A08AE002E08AA00B8
:10189C000430AA36890B4F2C2A080739AB002B08C9
:1018AC00AC002E08AA000230AA36890B5A2C2A0842
:1018BC000339AB002B08AD002C3008004001A2000E
:1018CC008A31E7228C31430191158A31E7228C3120
:1018DC0043010C084001A1002108A3008A31E72232
:1018EC008C314001220803197C2C7D2C812C8A31EF
:1018FC0092228C31842C8A318E228C314001230827
:10190C0008007A304001A1002108E8000630A1004F
:10191C002108E7003530A1002108E6001A30A100AB
:10192C002108E5006030A1002108FC001330A10063
:10193C002108FB005830A1002108FA00DD30A1007D
:10194C002108F900F801F80A0800400132083302B6
:10195C00A700A801031CA8033208B600B70136087B
:10196C003002A1003708313BA20034083502A30035
:10197C00A401031CA4038C3123248C3140012208C4
:10198C00AA002108A900873191278C314001270832
:10199C00340708004001A8008A319A228C31D430D7
:1019AC008A31DD228C31400128088A31DD228C31CC
:1019BC008A319A228C31D5308A31DD228C3101303A
:1019CC008C3164248C314001A6002608A9008A3190
:1019DC00A0228C3140012908A600A7012608A400EA
:1019EC002708A50008004001A500603041019E00B9
:1019FC0040012508A3000130A335FF3E031D022D35
:101A0C002335013841019D0034304001A300F130F1
:101A1C00890B0E2DA30B0E2D003241019D149D1828
:101A2C00182D192D152D1C084001A300A401230805
:101A3C00A1002408A200080040016F08031D272DF7
:101A4C00282D2D2D4601950199019D014B2D6F03DC
:101A5C00031D312D322D362D863137268D314B2DF0
:101A6C0002306F06031D3B2D3C2D402D8631B026D8
:101A7C008D314B2D03306F06031D452D462D4A2D00
:101A8C008E31A5268D314B2DEF01080051018C13A1
:101A9C00033050019200FF3040019200FF3094005F
:101AAC007E01B801CE0138162030B900CF30440188
:101ABC008E050E118E148F1304309100FE308D00A4
:101ACC00CC308C004E011A1444010E144E01161623
:101ADC0020307E01BD002030BE00BF018B170B17DC
:101AEC000800283043019000910140013B08BF00E1
:101AFC003C08C0003D08C1003E08C2000230BF35A2
:101B0C00C00DC10DC20D890B852D4208B0004108D6
:101B1C00AF004008AE003F08AD000130B400E83023
:101B2C00B3004830B2000030B1008F3148278D31FE
:101B3C0040012D08FF3E43018D0080308F000800CE
:101B4C0000304001AC000030AB000030AA00003087
:101B5C00A900211CB22DB32DBB2D2508A9072608E1
:101B6C00AA3D2708AB3D2808AC3D0130A535A60D94
:101B7C00A70DA80D890BBC2D0130A436A30CA20C0B
:101B8C00A10C890BC32D2408230422042104031D5A
:101B9C00D02DD12DAF2D2C08A4002B08A3002A0882
:101BAC00A2002908A10008004001A601A7012108F4
:101BBC0022040319E22DE32D122EA801A80AEF2D01
:101BCC000130A135A20D890BE72D0130A5002508A8
:101BDC00A807A21FF22DF32DE62D0130A635A70D77
:101BEC00890BF42D22082402031DFE2D210823024B
:101BFC00031C012E022E072E2108A3022208A43B4F
:101C0C0026140130A236A10C890B082E0130A80233
:101C1C00031D112E122EF32D2708A2002608A10059
:101C2C0008008A31C4228E310B307E01A2000C30A8
:101C3C00A3000D30A4008A31CB228E3146019601CF
:101C4C00FF3045018D00460195013F3094008030F6
:101C5C00960040011411E030460196009A0199015A
:101C6C003F30980080309A0040019411E0304601DA
:101C7C009A009E019D013F309C0080309E004001E7
:101C8C001412E03046019E000330450190008E177F
:101C9C000E128E120E170E148E140E158E158C013C
:101CAC00FF308D004E019010080040011414941464
:101CBC00A2019E2E0130A1002108A2078E18672ECA
:101CCC00682E7E2E14100E100B304001A1006230D5
:101CDC00890B6E2EA10B6E2E0000400114140B30DC
:101CEC004001A1006230890B792EA10B792E0000E6
:101CFC0040018E1C822E832E642E94108E100B307D
:101D0C004001A1006230890B892EA10B892E0000A5
:101D1C00400194140B304001A1006230890B942EC9
:101D2C00A10B942E000040018E1C9D2E9E2E642E25
:101D3C000A302202031CA32EA42E602E080042019E
:101D4C0023084001A400420122084001A3004201E3
:101D5C0021084001A200420120084001A1008B3162
:101D6C00E7238E3140012408031DC82E2308031DD0
:101D7C00C82E2208031DC82E32302102031CC72E88
:101D8C00C82EE52E60080319CC2ECE2E0130CF2E96
:101D9C000030A9002908E0008B3119238E31400155
:101DAC0024084201A300400123084201A200400183
:101DBC0022084201A100400121084201A00040017B
:101DCC0060080319EA2EEB2EF12E460195019901BC
:101DDC00FF309D00F52E4601950199019D010800EB
:101DEC0040016808A4002408A20000308B31402375
:101DFC008E3140016708A4002408A20001308B3109
:101E0C0040238E3140016608A4002408A200023051
:101E1C008B3140238E3140016508A4002408A200B8
:101E2C0003308B3140238E317C084001A400240800
:101E3C00A20004308B3140238E317B084001A4007A
:101E4C002408A20005308B3140238E317A084001E2
:101E5C00A4002408A20006308B3140238E3179086F
:101E6C004001A4002408A20007308B3140238E319E
:101E7C0078084001A4002408A20008308B314023CC
:101E8C008E31080000304001B9000030B80000303D
:101E9C00B7000030B60030082F042E042D040319AF
:101EAC00582F592F9A2FBA01BA0A672F0130AD3526
:101EBC00AE0DAF0DB00D890B5D2F0130B50035089F
:101ECC00BA07B01F6A2F6B2F5C2F0130B635B70DD8
:101EDC00B80DB90D890B6C2F30083402031D802FFF
:101EEC002F083302031D802F2E083202031D802F72
:101EFC002D083102031C832F842F8D2F2D08B10246
:101F0C002E08B23B2F08B33B3008B43B36140130DB
:101F1C00B036AF0CAE0CAD0C890B8E2F0130BA0263
:101F2C00031D992F9A2F6B2F3908B0003808AF007A
:101F3C003708AE003608AD0008004001AA0027089B
:101F4C00AC002608AB002B082C04031DAE2FAF2FC2
:101F5C00B42FFF30A500FF30A600FF2F8A31FF22DF
:101F6C008F318A31AC228F3140012A358B31572386
:101F7C008F3140012208AE002108AD002D082E043F
:101F8C00031DC92FCA2FE52F25088B3157238F31FD
:101F9C0040012208AE002108AD00E52F2B0884007B
:101FAC002C08850000088B3157238F314001220803
:101FBC00AE002108AD000130AB070030AC3D2D0860
:101FCC002E04031DEA2FEB2FF72F0130A80200304F
:101FDC00A93B280A031DF62F290A031DF62FF72FFC
:101FEC00D42F8A31B2228F3140012E08A6002D0841
:041FFC00A500080034
:020000040001F9
:0A000E008C3FFE37ED07FF1FFF3F98
:00000001FF
