:020000040000FA
:1000000000008031672802347E1480314E01101CBC
:100010000A280B2819281010FE3044018D00CC301E
:100020008C000130F8070030F93D0030FA3D003017
:10003000FB3D7E01BF1E1D281E281F28BF12400148
:100040008C1A2328242838287D08031D28282928CD
:1000500035288B311D23803173084201BB007208A3
:10006000BA007108B9007008B800FD01FD0A6528E2
:100070007D0803193C283D28642842013B08F30011
:100080003A08F2003908F1003808F0008B317B2380
:10009000803173084201B7007208B6007108B500DC
:1000A0007008B4003708031D61283608031D612855
:1000B0003508031D612805303402031C60286128BF
:1000C00064284001EA01EA0AFD017E1009004001AE
:1000D0000308A00080316C28803103208031EF00BC
:1000E000263084008B308500E330860000308700A6
:1000F00009308B310823803142018A31DB22803183
:10010000BE00F801F901FA01FB01FC01FD016030BC
:100110008400003085000F308B3102238031410193
:10012000EC01ED01EE01EF0120308400013085008B
:100130001E308B31022380317E1040018131F7293E
:100140004101A800FF30B100FF30B200A401A501B9
:10015000A601A7010030A3000030A2000030A100DA
:100160000030A000AF01B001BB2941012F084001C0
:10017000D1000130D135FF3E031DBA285135410170
:1001800028074001D200520886008701403F410104
:10019000B300413FB400423FB500433FB600FF30DB
:1001A00033054001A1000330410134054001A200A4
:1001B0000A30A3000030A4008C316B248031400150
:1001C00022084101AE00400121084101AD00330881
:1001D0004001D100410134084001D20041013508FD
:1001E0004001D300410136084001D4000A30D43622
:1001F000D30CD20CD10C890BF728FF305105A1008C
:1002000003305205A2003230A3000030A4008C312C
:100210006B248031400122084101B80040012108CF
:100220004101B70000304001B0000030AF000330A2
:10023000AE00E830AD0041012D084001A1004101B0
:100240002E084001A200A301A4014101370840018A
:10025000A500410138084001A600A701A8018D3181
:10026000F825803140012408B4002308B300220897
:10027000B2002108B1008F31482780314001300899
:100280004101AC0040012F084101AB0040012E08A4
:100290004101AA0040012D084101A900033040019D
:1002A000D1000030D2000030D3000030D400410132
:1002B00033084001D500410134084001D600410116
:1002C00035084001D700410136084001D8001E30F2
:1002D000D836D70CD60CD50C890B68295508D10512
:1002E0005608D2055708D3055808D40554085304B6
:1002F00052045104031D7D297E29B6291330410182
:100300003802883003193702031C87298829B62947
:100310002E303802E13003193702031C902991294D
:100320009229B6292C082302031DA0292B0822029A
:10033000031DA0292A082102031DA0292908200243
:100340000318A329A429B6292E08A5002D08A40066
:100350003808A7003708A6002C08A3002B08A20025
:100360002A08A1002908A000B101B2010130410111
:10037000AF070030B03D3008803A4001D1008030F6
:100380005102031DC6294F0841012F02031CC92930
:10039000CA29B528410131083204031DD029D129C9
:1003A000EF2925084001BB00410124084001BA00A3
:1003B000410127084001BD00410126084001BC0061
:1003C0000330D1005108BE00853134258031400111
:1003D0003B084101B20040013A084101B100320836
:1003E0004001D000410131084001CF0008008D31AB
:1003F000702581318E31AD2681318B310E238131D3
:1004000011307D01C60016307E01A10010307D0143
:10041000C50015307E01A0008B31152381310030DD
:100420004001BE000530BD005730BC003030BB007D
:100430008D31C92581318B31672381318D319B25E8
:1004400081318E3169268131640040016A080319C7
:100450002A2A2B2A8E2A42013708031D3B2A3608F6
:10046000031D3B2A3508031D3B2A55303402031C6B
:100470003A2A3B2A5E2A40016B080319402A422A85
:100480000130432A0030DF005F08EB006B080319DE
:100490004A2A4B2A4E2A94128E168C2A941603301E
:1004A0006F06031D542A552A8C2A6430DF005F082A
:1004B000A20009308B31A62381318C2A40016B08C0
:1004C0000319632A642A8C2A42013708031D732A00
:1004D0003608031D732A3508031D732A333034028E
:1004E0000318732A742A8C2A40016E0A8600870139
:1004F0000108031D7C2A7D2A8C2A33306D020318E3
:10050000822A832A882A0230DF005F08EF008C2AC3
:100510000130DF005F08EF074001EA018431112458
:1005200081318C313424813140016E0A860087018B
:100530000108031D9C2A9D2AC92A6B080319A12AB8
:10054000A22AA52A8D314625813142013308400176
:10055000A400420132084001A300420131084001D9
:10056000A200420130084001A1008B31902381316B
:1005700040012408031DC72A2308031DC72AF4309D
:1005800021020130223B031CC62AC72AEB2AE901BB
:10059000EB2A8431B224813140016908031DD12A3C
:1005A000D22AEB2A8331152381314001E901E90A7E
:1005B0008B3139238131400124084201B3004001CD
:1005C00023084201B200400122084201B10040016B
:1005D00021084201B00040016B08031DF02AF12AF6
:1005E000242A6E0A860087010108031DF82AF92AC9
:1005F000242A6A08031DFD2AFE2A242A8C1E012BA8
:10060000022B242A6C08031D062B072B242A6908B9
:10061000031D0B2B0C2B242A8B314F2381316400BB
:1006200063000100242A803167280E304001D90080
:100630005908AE00B930DA005A08AF0028308C31C2
:100640000424833140012E082F04031D282B292B5D
:10065000102C410139182D2B2E2B2F2B102C8731CC
:100660001D2783314001330834040319382B392BFB
:100670003A2B102C16304001D9005908AE00B93081
:10068000DA005A08AF0028308C310424833140014D
:100690002E082F0403194D2B4E2B4F2B102C4101EC
:1006A0003919532B542B552B3A2B31304001D9009B
:1006B0005908AE00E130DA005A08AF0028308B311B
:1006C000D423833140012E082F040319682B692B92
:1006D0006A2B102C410162084001DA0041016108D7
:1006E0004001D9005A0E0F39D900DA0107305905F7
:1006F000DB0000305A05DC005B085C040319812B29
:10070000822B3A2B0F30410161054001D9000030A6
:10071000410162054001DA0059035A040319912B83
:10072000922B932B3A2B3030D9005908AE00B930B8
:10073000DA005A08AF0028308C310424833140019C
:100740002E082F040319A52BA62BA72B102C410133
:1007500062084001DA00410161084001D9005A0EE7
:100760000F39D900DA0107305905DB0000305A058E
:10077000DC00DB35DC0DDB35DC0D410139084001E7
:10078000DD00DE015C085E06031DC82B5B085D060C
:100790000319CB2BCC2BCD2B102C3330D90059087F
:1007A000A500B930DA005A08A600410162084001EC
:1007B000DC00410161084001DB005C0E0F39DB0009
:1007C000DC0107305B05DD0000305C05DE00DD3557
:1007D000DE0DDD35DE0D5D08A7005E08A8002830BF
:1007E0008531B12583314001250826040319F92BF1
:1007F000FA2BFB2B102C410162084001DA00410169
:1008000061084001D9005A0E0F39D900DA015908A0
:100810000739DB005B08CF00B9308031A02083317D
:10082000080040016C08031D162C172C3D2C8C3140
:100830008B2484314001AF002F08EE009130AF00CF
:100840002F08A20002308B31A62384318B3139234B
:100850008431400124084201AF00400123084201D5
:10086000AE00400122084201AD00400121084201D2
:10087000AC004001EC01EC0AB12C6C03031D412CCF
:10088000422C862C42012F084001A40042012E0870
:100890004001A30042012D084001A20042012C08A2
:1008A0004001A1008B319023843140012408031DB5
:1008B000652C2308031D652C2208031D652C503070
:1008C0002102031C642C652CB12C0E308C31F424D5
:1008D000843140012408AF002F08ED000230AF0042
:1008E0002F08EC008B313923843140012408420168
:1008F000AF00400123084201AE004001220842013E
:10090000AD00400121084201AC00B12C02306C0660
:10091000031D8B2C8C2CAF2C42012F084001A4000E
:1009200042012E084001A30042012D084001A2000F
:1009300042012C084001A1008B31902384314001F9
:100940002408031DAF2C2308031DAF2C2208031D10
:10095000AF2C14302102031CAE2CAF2CB12CEC01B7
:10096000B12C0800420127084001A40042012608DA
:100970004001A300420125084001A20042012408D1
:100980004001A1008B319023843140012408031DD4
:10099000D52C2308031DD52C2208031DD52C02308D
:1009A0002102031CD42CD52C332D8B3139238431D7
:1009B000400124084201A700400123084201A6008B
:1009C000400122084201A500400121084201A40083
:1009D0004001630A031DED2CEE2CEF2CE1010230E7
:1009E00063020318F42CF52CF72CE101E10A6103F2
:1009F000031DFB2CFC2C012D0130A9002908E30765
:100A0000252D6108031D052D062D252D0130E3023E
:100A1000252D4601950199014001630846019D007D
:100A2000332D4601950140016308460199000C2DC4
:100A30004601950140016308460199009D01332D4F
:100A40004601950199019D01332D6E0A86008701AB
:100A50000108013A0319092D033A0319112D013A2E
:100A60000319182D202D080040013E080319392DC7
:100A70003A2D402D04303E02031C3F2D402D452DC4
:100A8000FF30BA00FF30BB00B02D3230A100003083
:100A9000A2003D08A4003C08A3008E312C2685311D
:100AA000FF3040012105BF0003302205C0003F0890
:100AB000C1004008C200C301C4010A30C135C20DE3
:100AC000C30DC40D890B5E2D0A30A1000030A200B9
:100AD0003B08A4003A08A3008E312C268531FF3054
:100AE00040012105C50003302205C6004508C700A6
:100AF0004608C800C901CA0141084704CB004208A2
:100B00004804CC0043084904CD0044084A04CE0000
:100B10003E08BF000130BF35FF3E031D8B2D3F3522
:100B2000813EC0004008AF004E08B3004D08B2003F
:100B30004C08B1004B08B00028308B31EC238531D4
:100B400040012F0830040319A62DA72DA82D402DF4
:100B500087311D27853140013408BB003308BA00B6
:100B600008004001AA002608A9002908AB002B08AC
:100B7000031DBB2DBC2DC12DFF30A500FF30A600ED
:100B80002B2E8B315B2385318A31F6228531400152
:100B90002A358B31BD23853140012208AD00210863
:100BA000AC002C082D04031DD62DD72DE02D2508D3
:100BB0008B31BD23853140012208AD002108AC00F6
:100BC0002C082D04031DE52DE62DE92D8A31F02298
:100BD000853140012C082D04031DEF2DF02DFA2D39
:100BE00003142A0D8B31BD23853140012208AD004D
:100BF0002108AC002C082D04031DFF2D002E232EF0
:100C0000172E270828040319062E082E0130092E56
:100C100000308C314D2485314001A9002B0886001D
:100C20008701290881000130A9002908AB0701309C
:100C3000A7020030A83B270A031D222E280A031D05
:100C4000222E232E012E8A31FC22853140012D08CF
:100C5000A6002C08A500080042012B084001A400B2
:100C600042012A084001A300420129084001A200D4
:100C7000420128084001A1008B31902386314001B8
:100C80002408031D4F2E2308031D4F2E2208031D89
:100C90004F2E02302102031C4E2E4F2EA42E8B31DC
:100CA00039238631400124084201AB00400123086A
:100CB0004201AA00400122084201A9004001210886
:100CC0004201A8004001640A031D672E682E742E9D
:100CD000E4010130A9002908E20703306202031C85
:100CE000722E732E742EE2010130A9002908E40748
:100CF0006208031D7C2E7D2E852E64094601950019
:100D000040016408460199009D0140016203031DF2
:100D10008A2E8B2E952E46019501400164094601CD
:100D200099004001640846019D00023040016206BE
:100D3000031D9B2E9C2EA42E64084601950099014C
:100D40004001640946019D00080040016D08B8009B
:100D50003808C00063304002031CAF2EB02EB42E02
:100D60006230B8003808C0004008B800B90138083F
:100D7000B0003908B100B2016230BA003A08B300DD
:100D8000B4017F30BB003B08B5008C31CF248631E5
:100D90004001BC003C08C000403040020318D12E86
:100DA000D22EF32E4008B800B9013808B000390837
:100DB000B100B2013F30BA003A08B300B401FF30CD
:100DC000BB003B08B5008C31CF2486314001BC000C
:100DD0003C08C000460195014001400846019900C9
:100DE000FF309D001C2F3F304002031CF82EF92ECF
:100DF0001C2F4008B800B9013808B0003908B1000C
:100E00003F30BA003A08B2007F30BB003B08B30065
:100E1000B401FF30BC003C08B5008C31CF248631D2
:100E20004001BD003D08C00046019501FF3099001A
:100E30004001400946019D00080023304001B500F3
:100E40003508AF00B001B00A28308C311C2487313E
:100E500040013008B9002F08B80038083904031DD4
:100E6000322F332F502F2F30B5003508AE003730DA
:100E7000B6003608AF0028308C3104248731400199
:100E80002F08B9002E08B80038083904031D492F6F
:100E90004A2F502F21303706031D4F2F502F332F4D
:100EA00038083904031D552F562F632F0230400197
:100EB000B6001930B5008130890B5C2FB50B5C2F63
:100EC000B60B5C2F0032400138083904031D692F2E
:100ED0006A2F782F2330B5003508AF00B0012830D5
:100EE0008C311C24873140013008B9002F08B8002C
:100EF0003808390403197D2F7E2F832FFF30B3006C
:100F0000FF30B400852FB301B40108004001AD01EA
:100F1000A81F8B2F8C2F932FA709A809A70A0319A5
:100F2000A80AAD01AD0AAA1F962F972FA02FA909D5
:100F3000AA09A90A0319AA0A0130AB002B08AD06B9
:100F4000AE01AF01270828040319A72FA82FD72F18
:100F5000AC01AC0AB42F0130A735A80D890BAC2F1A
:100F60000130AB002B08AC07A81FB72FB82FAB2F51
:100F70000130AE35AF0D890BB92F28082A02031DA9
:100F8000C32F27082902031CC62FC72FCC2F2708E1
:100F9000A9022808AA3B2E140130A836A70C890BF9
:100FA000CD2F0130AC02031DD62FD72FB82F2D081F
:100FB0000319DB2FDC2FE12FAE09AF09AE0A0319AD
:100FC000AF0A2F08A8002E08A7000800003400343C
:100FD000B034AA3400344534003400341034403482
:100FE0009C341C34FF3401343C34DF34023440344C
:100FF0000F34003432340034FC34F134003419340A
:101000005634AF34FB3475345F34003400342D343F
:0C101000F0342034433400345034FB34FE
:1015B60001344301911211160800430191161116C8
:1015C60008008B3143238A314301111408008B3103
:1015D60043238A31430111150800430191148B31CD
:1015E6005B238A310800430111148B315B238A3156
:1015F6000800430111158B315B238A310800640012
:1016060080010131890B032B0034FE0012001E00FD
:10161600FE0B092B003455307D018F00AA308F0058
:101626008F01080055307D018F00AA308F000130F0
:101636008F0008007B08F3007A08F2007908F100B1
:101646007808F00008000A340134013401346034AB
:10165600053401343A3401344001A1008B3143236F
:101666008B314001210843018C0008007B084001B2
:10167600A4007A08A3007908A2007808A10008004F
:1016860043010F19472B482B432B11081F39031D04
:101696004D2B4E2B432B08004601950199019D01C8
:1016A60096139A139E1340010E118E110E12080006
:1016B60043010F195F2B602B5B2B11081F39031D8C
:1016C600652B662B5B2B08007A304001A1002108B0
:1016D600E8001A30A1002108E7006030A1002108C7
:1016E600E600DD30A1002108E500FC01FC0A080047
:1016F60070087802F4007108793BF50072087A3BAD
:10170600F60073087B3BF7007708F3007608F200D3
:101716007508F1007408F0000800400121087802FD
:10172600A5002208793BA60023087A3BA7002408D7
:101736007B3BA8002808A4002708A3002608A200CF
:101746002508A10008004001A3008A31E4228B315C
:10175600D4308B312F238B31400123088B312F233B
:101766008B31400122088B312F238B318A31EA22BB
:101776008B3108004001A400240843018C008B3102
:101786005B238B314301111BC92BCA2BCE2B400186
:10179600A101A201D32BFF304001A100FF30A2001E
:1017A60008004001B2002E08B0003008A5002F083E
:1017B600B1003108A6000230A7000030A8003208A8
:1017C6008531B1258B3140012608AF002508AE00D2
:1017D60008004001B5002F08B4003408A5003030D9
:1017E600A6000030A7000430A8000030A900350884
:1017F6008F31A3278B3140012608B0002508AF00A2
:1018060008004001B2002E08B0003008A5002F08DD
:10181600B1003108A6000130A7000030A800320848
:101826008531B1258C3140012608AF002508AE0070
:1018360008004001B2002F08B1003108A500303081
:10184600A6000030A7000130A8000030A900320829
:101856008F31A3278C3140012608B0002508AF0040
:10186600080004308D311D258C31003040012202E4
:10187600DE3003192102031C412C422C4C2CEB01B7
:1018860094166430A6002608A20009308B31A623E0
:101896008C3108004001A200430191158B315B2376
:1018A6008C3143010C084001A1002108A3008B31B3
:1018B6005B238C314001220C4301031C9112031857
:1018C600911611168B315B238C31400123080800D9
:1018D6004001A501A601211C712C722C762C23082F
:1018E600A5072408A63D0130A335A40D890B772C46
:1018F6000130A236A10C890B7C2C21082204031D81
:10190600852C862C6E2C2608A2002508A10008002E
:101916000B308C31F4248C3140012408AA002A08AB
:10192600AE002E08AA000430AA36890B972C2A0886
:101936000739AB002B08AC002E08AA000230AA36E5
:10194600890BA22C2A080339AB002B08AD002C30DA
:1019560008004001A2008B3143238C3143019115CD
:101966008B3143238C3143010C084001A10021082F
:10197600A3008B3143238C31400122080319C42C68
:10198600C52CC92C8A31E0228C31CC2C8A31DC2240
:101996008C31400123080800400132083302A700B9
:1019A600A801031CA8033208B600B70136083002A6
:1019B600A1003708313BA20034083502A300A40178
:1019C600031CA4038C316B248C3140012208AA002D
:1019D6002108A900873186278C3140012708340762
:1019E60008004001A8008A31E4228C31D4308B31C2
:1019F6002F238C31400128088B312F238C318A31DB
:101A0600E4228C31D5308B312F238C3101308C314F
:101A1600AC248C314001A6002608A9008A31EA22AE
:101A26008C3140012908A600A7012608A400270832
:101A3600A50008004001A500603041019E0040015C
:101A46002508A3000130A335FF3E031D262D2335AF
:101A5600013841019D0034304001A300F130890B6B
:101A6600322DA30B322D003241019D149D183C2DC1
:101A76003D2D392D1C084001A300A4012308A10017
:101A86002408A200080040016F08031D4B2D4C2DB1
:101A9600512D4601950199019D016F2D6F03031D7F
:101AA600552D562D5A2D86312C268D316F2D02300F
:101AB6006F06031D5F2D602D642D8631A5268D31A1
:101AC6006F2D03306F06031D692D6A2D6E2D8E3125
:101AD600F7268D316F2DEF01080051018C1303306D
:101AE60050019200FF3040019200FF3094007E01C9
:101AF600B801CE0138162030B900CF3044018E052A
:101B06000E118E148F1304309100FE308D00CC30F0
:101B16008C004E011A1444010E144E011616203084
:101B26007E01BD002030BE00BF018B170B170800D9
:101B360040016808A4002408A20000308B31A623C7
:101B46008D3140016708A4002408A20003308B31C0
:101B5600A6238D3140016608A4002408A2000430A3
:101B66008B31A6238D3140016508A4002408A2000C
:101B760007308B31A6238D317C084001A400240850
:101B8600A20008308B31A6238D310800283043018E
:101B96009000910140013B08BF003C08C0003D0891
:101BA600C1003E08C2000230BF35C00DC10DC20DD6
:101BB600890BD72D4208B0004108AF004008AE009F
:101BC6003F08AD000130B400E830B3004830B20041
:101BD6000030B1008F3148278D3140012D08FF3E7E
:101BE60043018D0080308F00080000304001AC00BA
:101BF6000030AB000030AA000030A900211C042EE2
:101C0600052E0D2E2508A9072608AA3D2708AB3D57
:101C16002808AC3D0130A535A60DA70DA80D890BEA
:101C26000E2E0130A436A30CA20CA10C890B152E86
:101C36002408230422042104031D222E232E012E10
:101C46002C08A4002B08A3002A08A2002908A1003A
:101C560008004001A601A701210822040319342E19
:101C6600352E642EA801A80A412E0130A135A20DF9
:101C7600890B392E0130A5002508A807A21F442E7E
:101C8600452E382E0130A635A70D890B462E220883
:101C96002402031D502E21082302031C532E542E0A
:101CA600592E2108A3022208A43B26140130A2368D
:101CB600A10C890B5A2E0130A802031D632E642E37
:101CC600452E2708A2002608A10008008B310E2306
:101CD6008E310B307E01A2000C30A3000D30A40023
:101CE6008B3115238E3146019601FF3045018D005B
:101CF600460195013F309400803096004001141152
:101D0600E030460196009A0199013F3098008030F4
:101D16009A0040019411E03046019A009E019D010F
:101D26003F309C0080309E0040011412E030460196
:101D36009E000330450190008E170E128E120E176C
:101D46000E148E140E158E158C01FF308D004E016B
:101D560090100800400114149414A201F02E0130D2
:101D6600A1002108A2078E18B92EBA2ED02E141063
:101D76000E100B304001A1006230890BC02EA10B62
:101D8600C02E0000400114140B304001A100623047
:101D9600890BCB2EA10BCB2E000040018E1CD42E1E
:101DA600D52EB62E94108E100B304001A100623055
:101DB600890BDB2EA10BDB2E0000400194140B30A7
:101DC6004001A1006230890BE62EA10BE62E000031
:101DD60040018E1CEF2EF02EB62E0A302202031C76
:101DE600F52EF62EB22E0800420123084001A4006B
:101DF600420122084001A300420121084001A2003D
:101E0600420120084001A1008B3190238E31400110
:101E16002408031D1A2F2308031D1A2F2208031D49
:101E26001A2F32302102031C192F1A2F372F600860
:101E360003191E2F202F0130212F0030A900290859
:101E4600E0008B3139238E31400124084201A30082
:101E5600400123084201A200400122084201A100DC
:101E6600400121084201A0004001600803193C2FEF
:101E76003D2F432F460195019901FF309D00472FC5
:101E86004601950199019D01080000304001B90005
:101E96000030B8000030B7000030B60030082F041C
:101EA6002E042D040319582F592F9A2FBA01BA0A56
:101EB600672F0130AD35AE0DAF0DB00D890B5D2F1F
:101EC6000130B5003508BA07B01F6A2F6B2F5C2F9B
:101ED6000130B635B70DB80DB90D890B6C2F30082A
:101EE6003402031D802F2F083302031D802F2E0876
:101EF6003202031D802F2D083102031C832F842FED
:101F06008D2F2D08B1022E08B23B2F08B33B3008A7
:101F1600B43B36140130B036AF0CAE0CAD0C890BA9
:101F26008E2F0130BA02031D992F9A2F6B2F390875
:101F3600B0003808AF003708AE003608AD0008001C
:101F46004001AA002708AC002608AB002B082C0489
:101F5600031DAE2FAF2FB42FFF30A500FF30A60014
:101F6600FF2F8B315B238F318A31F6228F3140016F
:101F76002A358B31BD238F3140012208AE0021085E
:101F8600AD002D082E04031DC92FCA2FE52F2508E5
:101F96008B31BD238F3140012208AE002108AD00F0
:101FA600E52F2B0884002C08850000088B31BD2303
:101FB6008F3140012208AE002108AD000130AB0789
:101FC6000030AC3D2D082E04031DEA2FEB2FF72F12
:101FD6000130A8020030A93B280A031DF62F290A62
:101FE600031DF62FF72FD42F8A31FC228F314001A3
:0A1FF6002E08A6002D08A500080023
:020000040001F9
:0A000E008C3FFE37ED07FF1FFF3F98
:00000001FF
