:020000040000FA
:04000000803119280A
:100008007E14803145018C014E0190108031C02052
:1000180080317E01BF1240014E08031D14281528A7
:100028001728630017287E10090080311B288631A5
:10003800F8268031FC00F801F901FA01FB01C6013C
:10004800C701C801C901CA01CB01CC01CD01CE014C
:100058007E10400183315F2B40014808BB003B08FC
:10006800C300C1016230BB003B08C2004308420222
:1000780003183F28402844284208BB003B08C30017
:1000880041084302031849284A284F284108BB0061
:100098003B08C3004F284308BB00BC013B08AF0026
:1000A8003C08B0004108BD003D08B1004208BE0050
:1000B8003E08B200B3017F30BF003F08B40083316F
:1000C800E42380314001C0004008C30040304302AF
:1000D80003186F28702891284308BB00BC013B080F
:1000E800AF003C08B000B1013F30BD003D08B20090
:1000F800B301FF30BE003E08B4008331E4238031F1
:100108004001BF003F08C300460195014001430874
:1001180046019900FF309D00BF283F30400143024F
:10012800031C97289828BF284308BB00BC013B083C
:10013800AF003C08B0003F30BD003D08B1007F3043
:10014800BE003E08B200B301FF30BF003F08B40054
:100158008331E42380314001C0004008C3004601D8
:100168009501FF30990040014303FF3AFF3E4601E5
:100178009D00BF28BF280800F701F601D7284E01C7
:10018800901CC728C828CE280130F5007508F70745
:100198009010CE2878307702031CD328D428D7288B
:1001A800F601F60AD72840018C1ADB28DC28E32858
:1001B80076080319E028E128C328E328E3287830E3
:1001C8007702031CE828E9281E294E080319ED28A0
:1001D800EF280130F0280030F5007508CE004E03F6
:1001E800031DF728F828FC2886318B26803117292B
:1001F80040014E08031D0129022917298631F426DA
:100208008031033A031D09290A290F290130863153
:100218002726803117290030863127268031172973
:1002280017291729172940018C1E1B291C29172952
:100238004929492902307702031C232924294929FD
:100248004E0803192829292949297B0803192D292A
:100258002E2949290130F5007508CC074C0886314C
:10026800C22680318631F4268031F50004307502CB
:10027800031C3F29402949294001CC014C088631FB
:10028800C226803149294929492908004001AC0181
:10029800A71F4F2950295829A609A709A60A0319F3
:1002A800A70AAC01AC0A5829A91F5B295C29662951
:1002B800A809A909A80A0319A90A0130AA002A0845
:1002C800AC066629AD01AE012608270403196D297D
:1002D8006E29A329AB01AB0A7B290130A635A70DEE
:1002E800890B72290130AA002A08AB077B29A71FAE
:1002F8007E297F297129812981290130AD35AE0DEB
:10030800890B822927082902031D8C29260828021F
:10031800031C8F29902996292608A8022708A93B9B
:100328002D1496290130A736A60C890B9729013080
:10033800AB02031DA029A1298129A329A3292C08DF
:100348000319A729A829AE29AD09AE09AD0A0319D1
:10035800AE0AAE292E08A7002D08A600B32908006A
:1003680000304001AC000030AB000030AA00003083
:10037800A90023082204210420040319C429C5293B
:100388000C2AAD01AD0AD4290130A035A10DA20D6A
:10039800A30D890BC9290130A8002808AD07D42965
:1003A800A31FD729D829C829DA29DA290130A9357C
:1003B800AA0DAB0DAC0D890BDB2923082702031D01
:1003C800EF2922082602031DEF2921082502031D13
:1003D800EF2920082402031CF229F329FD2920080B
:1003E800A4022108A53B2208A63B2308A73B291401
:1003F800FD290130A336A20CA10CA00C890BFE2903
:100408000130AD02031D092A0A2ADA290C2A0C2A0E
:100418002C08A3002B08A2002A08A1002908A00084
:10042800152A0800790A031D1A2A1B2A1D2AFC010D
:100438001D2A023079020318222A232A262AFC01BF
:10044800FC0A262A7C03031D2A2A2B2A312A01307A
:100458004001A0002008F9073A2A7C08031D352A24
:10046800362A3A2A0130F9023A2A3A2A3430400127
:10047800A000F130890B3E2AA00B3E2A0032400131
:100488004603031D482A492A4F2A46019501990126
:1004980079089D00712A023040014606031D552A3D
:1004A800562A5D2A460195017908990079089D0028
:1004B800712A033040014606031D632A642A6A2A0A
:1004C80046019501790899009D01712A4601950117
:1004D80099019D01712A712A712A080040014E086C
:1004E8000319772A782AC32A4E01101C7C2A7D2AF0
:1004F800C32A101001304001AC002C08CD070A3087
:100508004D02031C882A892AC32ACD0185319925E1
:1005180082314001AC002C08CA004A080319952A08
:10052800962A982AFB019B2AFB01FB0A9B2A853104
:10053800DB2582314001AC002C08CB004B0886310A
:10054800B42682318631E8268231AA2A8631E82605
:1005580082314001AC0033302C020318B42AB52A8A
:10056800BE2A0230AC002C08CC004C088631AD26DF
:100578008231BE2A86313D268231C32AC32A080029
:100588007A0A031DC82AC92AD82AFA01013040016B
:10059800A0002008F80703307802031CD42AD52AC3
:1005A800D82AF801D82AD82A01304001A00020080A
:1005B800FA077D304001A000AB30890BE12AA00B7F
:1005C800E12A00327808031DEA2AEB2AF42A7A0382
:1005D800FF3AFF3E460195007A0899009D01F42AEA
:1005E8007803031DF82AF92A022B460195017A039C
:1005F800FF3AFF3E99007A089D00022B02307806E8
:10060800031D072B082B112B7A0846019500990129
:100618007A03FF3AFF3E9D00112B0800400149086C
:10062800031D172B182B1D2B4601950199019D01C0
:100638005E2B40014903031D222B232B272B8231DC
:10064800C42283315E2B023040014906031D2D2B45
:100658002E2B322B8031302083315E2B033040012A
:100668004906031D382B392B5E2B4601950199014C
:10067800FF309D0011304001C5003C30C400CB3034
:10068800890B442BC40B442BC50B442B4601950105
:1006980099019D0111304001C5003C30C400CB30A8
:1006A800890B542BC40B542BC50B542B5E2B5E2B80
:1006B8005E2B5E2B08008431212483318631BB26D2
:1006C800833111307D01C60016307E01A100103043
:1006D8007D01C50015307E01A00086319526833145
:1006E80000304001B1000130B0008630AF00A030CA
:1006F800AE008431F82483318331A62383318431D9
:10070800902483316300882B40014E03031D8D2BF9
:100718008E2BA02B82317222833140014A080319A3
:10072800962B972B9B2B823116228331882B833172
:1007380012238331882B882B6300882B882B882BE6
:10074800803119287A304001A3002308A100003025
:100758008631102683311A304001A3002308A100F6
:10076800033086311026833160304001A30023080E
:10077800A1000430863110268331CD304001A3001A
:100788002308A10007308631102683313530400117
:10079800A3002308A1000230863110268331FF30E0
:1007A8004001A3002308A1000D30863110268331B3
:1007B8004001A101A10A08308631102683310800C2
:1007C80040013108B500B601B509B609B50A0319E3
:1007D800B60A32083507A60036080318360AA700F5
:1007E8003108B700B801B709B809B70A0319B80A38
:1007F8002F083707A0003008383DA1003308B9009A
:10080800BA01B909BA09B90A0319BA0A3408390781
:10081800A2003A0803183A0AA300853176258331E5
:1008280040012108A9002008A80081314A2183310C
:10083800400126083307202C08000330500192009D
:1008480044010E10FF3040019200FF309400103038
:100858007E01B800CE012030B90003304501900078
:100868008E170E128E120E170E148E140E158E156C
:100878008C01FF308D004E019010353044018E0000
:100888008F1703309100FF308D00FF308C004E0130
:100898001A10161620307E01BD002030BE00BF01A0
:1008A800C8308B008B170B1708007A30F3007308D9
:1008B800F10000308631512684311A30F300730874
:1008C800F10003308631512684316030F30073081B
:1008D800F1000430863151268431CD30F30073089D
:1008E800F10007308631512684313530F300730822
:1008F800F1000230863151268431FF30F30073084D
:10090800F1000D30863151268431F101F10A0830A9
:1009180086315126843108008631BB2684310B305C
:100928007E01A2000C30A3000D30A400863195266C
:10093800843146019601FF3045018D00460195013D
:100948003F3094008030960040011411E030460199
:1009580096009A0199013F30980080309A00400132
:100968009411E03046019A009E019D013F309C00A1
:1009780080309E0040011412E03046019E000800BD
:100988008631C92684310B307E01A2000C30A300C9
:100998000D30A40086319D26843146019601FF3032
:1009A80045018D00460195013F3094008030960046
:1009B80040011411E030460196009A0199013F3038
:1009C800980080309A0040019411E03046019A0066
:1009D8009E019D013F309C0080309E004001141212
:1009E800E03046019E000800283043019000910144
:1009F80040012E08B2002F08B3003008B4003108B7
:100A0800B5000230B235B30DB40DB50D890B062D06
:100A18003508A3003408A2003308A1003208A0005A
:100A28000130A700E830A6004830A5000030A40037
:100A38008131B421843140012008FF3E43018D00FB
:100A480080308F0008004001A7008631D626853106
:100A5800D4308631812685314001270886318126A8
:100A680085318631D6268531D53086318126853146
:100A780001308531512585314001A5002508A800A0
:100A88008631D026853140012808A500A601250811
:100A9800A3002608A400502D08004001A1008631BB
:100AA80065268531430191158631652685314301D7
:100AB8000C084001A0002008A20086316526853177
:100AC800400121080319692D6A2D6E2D8631EC2607
:100AD8008531722D8631F0268531722D400122082C
:100AE800752D08004001A401A5017A2D201C7D2D3B
:100AF8007E2D822D2208A4072308A53D0130A235AA
:100B0800A30D890B832D0130A136A00C890B882DEC
:100B180020082104031D912D922D7A2D932D25084F
:100B2800A1002408A000982D08000B308531272546
:100B3800853140012308A9002908AB002B08A9002A
:100B48000430A936890BA52D29080739AA002A08D7
:100B5800C7002B08A9000230A936890BB02D290837
:100B68000339AA002A08C6004708BA2D08006030D1
:100B780041019E0011309D0034304001A200F13047
:100B8800890BC42DA20BC42D003241019D14CC2D1C
:100B98009D18CF2DD02DCC2DD12D1C084001A200A1
:100BA800A3012208A0002308A100DA2D0800913033
:100BB8004001A9002908A10002308631102685319C
:100BC80015304001AA004B30A900BE30890BEA2D30
:100BD800A90BEA2DAA0BEA2D00000E308531272536
:100BE800853140012308F82D08004001A40094161F
:100BF800460196139A139E13400124080319052EE3
:100C0800062E0E2E6430A3002308A1000930863179
:100C180010268531630008004001A2008631D626DF
:100C28008631D430863181268631400122088631CA
:100C38008126863140012108863181268631863118
:100C4800D02686310800F400400194164601961318
:100C58009A139E1374080319322E332E3B2E6430D8
:100C6800F3007308F100093086315126863163009C
:100C780008008531BB258631003040012102DE3075
:100C880003192002031C492E4A2E502ECE01013092
:100C98008531F9258631502E0800F2008631E2268A
:100CA8008631D4308631A526863172088631A5264C
:100CB800863171088631A52686318631DC26863153
:100CC8000800662E43010F196A2E6B2E662E110836
:100CD8001F39031D702E712E662E722E0800742E79
:100CE80043010F19782E792E742E11081F39031D10
:100CF8007E2E7F2E742E802E08004001A0008631A3
:100D0800652686314001200843018C0008008431A3
:100D180059248631400194128E168431C4248631B8
:100D2800080055307D018F00AA308F0001308F00F8
:100D3800080055307D018F00AA308F0001308F00E8
:100D48000800F000863173268631700843018C0054
:100D580008004001A1002108A0002008C9000800DF
:100D68004001A1002108A0002008C8000800553053
:100D78007D018F00AA308F008F010800F1007108F3
:100D8800F00070084001C900080055307D018F004F
:100D9800AA308F008F01080086316526863143010D
:100DA80011150800863165268631430111140800A3
:100DB8008631732686314301111508008631732662
:100DC800863143011114080040014808EB2E080041
:100DD80043019116111608004301911211160800DB
:0A0DE80040014908F72E080001340D
:020000040001F9
:0A000E009C3FFE379F3FFF3FFF3F7E
:00000001FF
