:020000040000FA
:04000000803118280B
:100008007E14803145018C014E0190108031BA2058
:1000180080317E01BF127B08031D1328142816287F
:10002800630016287E10090080311A28F801F901AA
:10003800FA01FB014001C601C701C801C901CA0193
:10004800CB01CC017E1040018231A42A400148082E
:10005800BB003B08C300C1016230BB003B08C200C3
:1000680043084202031839283A283E284208BB00B0
:100078003B08C30041084302031843284428492881
:100088004108BB003B08C30049284308BB00BC012A
:100098003B08AF003C08B0004108BD003D08B10076
:1000A8004208BE003E08B200B3017F30BF003F08DF
:1000B800B40083312D2380314001C0004008C300C3
:1000C80040304302031869286A288B284308BB007C
:1000D800BC013B08AF003C08B000B1013F30BD0097
:1000E8003D08B200B301FF30BE003E08B4008331C2
:1000F8002D2380314001BF003F08C3004601950110
:100108004001430846019900FF309D00B9283F305F
:1001180040014302031C91289228B9284308BB00D8
:10012800BC013B08AF003C08B0003F30BD003D08B3
:10013800B1007F30BE003E08B200B301FF30BF00FF
:100148003F08B40083312D2380314001C0004008AE
:10015800C30046019501FF30990040014303FF3A6F
:10016800FF3E46019D00B928B9280800F701F601AD
:10017800D1284E01901CC128C228C8280130F5009A
:100188007508F7079010C82878307702031CCD2827
:10019800CE28D128F601F60AD12840018C1AD52894
:1001A800D628DD2876080319DA28DB28BD28DD28BB
:1001B800DD2878307702031CE228E32817297B081A
:1001C8000319E728E9280130EA280030F500750806
:1001D800FB007B03031DF128F228F628863144260C
:1001E800803110297B08031DFA28FB281029863145
:1001F800AD268031033A031D02290329082901305D
:100208008531E0258031102900308531E0258031A5
:10021800102910291029102940018C1E142915298C
:1002280010293C293C2902307702031C1C291D296E
:100238003C297B080319212922293C290130F50092
:100248007508FA077A0886317B2680318631AD2613
:100258008031F50004307502031C332934293C2908
:10026800FA017A0886317B2680313C293C293C29D1
:1002780008004001AC01A71F422943294B29A609C0
:10028800A709A60A0319A70AAC01AC0A4B29A91F9A
:100298004E294F295929A809A909A80A0319A90A01
:1002A8000130AA002A08AC065929AD01AE0126087A
:1002B80027040319602961299629AB01AB0A6E2925
:1002C8000130A635A70D890B65290130AA002A0837
:1002D800AB076E29A71F712972296429742974290B
:1002E8000130AD35AE0D890B752927082902031D8C
:1002F8007F2926082802031C8229832989292608A0
:10030800A8022708A93B2D1489290130A736A60C75
:10031800890B8A290130AB02031D9329942974297A
:10032800962996292C0803199A299B29A129AD09F0
:10033800AE09AD0A0319AE0AA1292E08A7002D0897
:10034800A600A629080000304001AC000030AB0030
:100358000030AA000030A900230822042104200448
:100368000319B729B829FF29AD01AD0AC7290130FA
:10037800A035A10DA20DA30D890BBC290130A80041
:100388002808AD07C729A31FCA29CB29BB29CD290E
:10039800CD290130A935AA0DAB0DAC0D890BCE299D
:1003A80023082702031DE22922082602031DE22949
:1003B80021082502031DE22920082402031CE5293F
:1003C800E629F0292008A4022108A53B2208A63B1B
:1003D8002308A73B2914F0290130A336A20CA10C4D
:1003E800A00C890BF1290130AD02031DFC29FD2960
:1003F800CD29FF29FF292C08A3002B08A2002A08D1
:10040800A1002908A000082A0800790A031D0D2A5E
:100418000E2A1D2AF90101304001A0002008F80722
:1004280003307802031C192A1A2A1D2AF8011D2AEA
:100438001D2A01304001A0002008F9077D30400145
:10044800A000AB30890B262AA00B262A0032780898
:10045800031D2F2A302A392A7903FF3AFF3E460125
:100468009500790899009D01392A7803031D3D2AD2
:100478003E2A472A460195017903FF3AFF3E990033
:1004880079089D00472A02307806031D4C2A4D2A18
:10049800562A79084601950099017903FF3AFF3EEB
:1004A8009D00562A080040014908031D5C2A5D2A60
:1004B800622A4601950199019D01A32A4001490339
:1004C800031D672A682A6C2A823109228231A32AED
:1004D800023040014906031D722A732A772A8031A7
:1004E8002A208231A32A033040014906031D7D2AB0
:1004F8007E2AA32A460195019901FF309D001130FB
:100508004001C5003C30C400CB30890B892AC40B9C
:10051800892AC50B892A4601950199019D01113047
:100528004001C5003C30C400CB30890B992AC40B6C
:10053800992AC50B992AA32AA32AA32AA32A080021
:1005480083316A23823186317426823111307D01EC
:10055800C60016307E01A10010307D01C50015309F
:100568007E01A00086314E26823100304001B10064
:100578000130B0008630AF00A030AE008431D32403
:1005880082318331A22382318331D92382316300BE
:10059800CD2A7B03031DD12AD22AE42A8231EA22FA
:1005A800823140014A080319DA2ADB2ADF2A84311A
:1005B800A4248231CD2A823157228231CD2ACD2AF4
:1005C8006300CD2ACD2ACD2A803118287B0803194B
:1005D800EE2AEF2A2C2B4E01101CF32AF42A2C2B7E
:1005E800101001304001AD002D08CC073C304C0202
:1005F800031CFF2A002B2C2BCC018431412482318F
:100608004001AD002D08CA00853194258231400192
:10061800AD002D08CB004B0886316D26823186311E
:10062800A12682314001AD0033302D0203181D2B65
:100638001E2B272B0230AD002D08FA007A088631D0
:1006480066268231272B8531F62582312C2B2C2BDF
:10065800080040013108B500B601B509B609B50A68
:100668000319B60A32083507A60036080318360AF1
:10067800A7003108B700B801B709B809B70A0319C4
:10068800B80A2F083707A0003008383DA100330802
:10069800B900BA01B909BA09B90A0319BA0A34087A
:1006A8003907A2003A0803183A0AA30085315125F0
:1006B800833140012108A9002008A80081313D218B
:1006C8008331400126083307692B080003305001A5
:1006D800920044010E10FF3040019200FF30940058
:1006E80010307E01B800CE012030B900033045013A
:1006F80090008E170E128E120E170E148E140E15F1
:100708008E158C01FF308D004E019010353044015C
:100718008E008F1703309100FF308D00FF308C0062
:100728004E011A10161620307E01BD002030BE0082
:10073800BF01C8308B008B170B17080048304001E9
:10074800A3002308A10000308531C92583311A3060
:100758004001A3002308A10003308531C925833156
:1007680060304001A3002308A10004308531C92569
:100778008331CD304001A3002308A1000730853123
:10078800C925833135304001A3002308A100023078
:100798008531C9258331FF304001A3002308A1001A
:1007A8000D308531C925833108008631742683319F
:1007B8000B307E01A2000C30A3000D30A40086315E
:1007C8004E26833146019601FF3045018D004601D2
:1007D80095013F3094008030960040011411E030BC
:1007E800460196009A0199013F30980080309A009E
:1007F80040019411E03046019A009E019D013F306E
:100808009C0080309E0040011412E03046019E009A
:1008180008008631822684310B307E01A2000C301C
:10082800A3000D30A4008631562684314601960176
:10083800FF3045018D00460195013F30940080301E
:10084800960040011411E030460196009A01990182
:100858003F30980080309A0040019411E030460102
:100868009A009E019D013F309C0080309E0040010F
:100878001412E03046019E0008000B308531022535
:10088800843140012308A9002908AC00AA012C08DA
:10089800A9000430A936890B4E2C29080319552CB8
:1008A800562C592CAA01AA0A592C2A08A900290849
:1008B800C700AB012C08A9000230A936890B612CAE
:1008C80029080319682C692C6C2CAB01AB0A6C2C19
:1008D8002B08A9002908C6004708722C08004830D0
:1008E800F3007308F100003086310A2684311A308B
:1008F800F3007308F100033086310A268431603032
:10090800F3007308F100043086310A268431CD30B3
:10091800F3007308F100073086310A268431353038
:10092800F3007308F100023086310A268431FF3063
:10093800F3007308F1000D3086310A26843108006F
:1009480040014603031DA92CAA2CB02C4601950191
:100958009901FF309D00D22C023040014606031D4C
:10096800B62CB72CBE2C46019501FF309900FF30FC
:100978009D00D22C033040014606031DC42CC52C13
:10098800CB2C46019501FF3099009D01D22C4601E0
:10099800950199019D01D22CD22CD22C0800283027
:1009A80043019000910140012E08B2002F08B300C6
:1009B8003008B4003108B5000230B235B30DB40DBB
:1009C800B50D890BE12C3508A3003408A2003308C3
:1009D800A1003208A0000130A700E830A600483086
:1009E800A5000030A4008131A721843140012008EE
:1009F800FF3E43018D0080308F0008004001A700B2
:100A080086318F268531D43086313A2685314001AA
:100A1800270886313A26853186318F268531D530AB
:100A280086313A268531013085312C2585314001C2
:100A3800A5002508A80086318926853140012808A7
:100A4800A500A6012508A3002608A4002B2D080050
:100A58004001A10086311E2685314301911586315A
:100A68001E26853143010C084001A0002008A20081
:100A780086311E268531400121080319442D452D54
:100A8800492D8631A52685314D2D8631A9268531FA
:100A98004D2D40012208502D08004001A401A50158
:100AA800552D201C582D592D5D2D2208A4072308EB
:100AB800A53D0130A235A30D890B5E2D0130A1366D
:100AC800A00C890B632D20082104031D6C2D6D2DAE
:100AD800552D6E2D2508A1002408A000732D0800AF
:100AE800603041019E0011309D0034304001A20069
:100AF800F130890B7D2DA20B7D2D003241019D1413
:100B0800852D9D18882D892D852D8A2D1C0840013D
:100B1800A200A3012208A0002308A100932D080029
:100B280091304001A9002908A10002308531C9256A
:100B3800853115304001AA004B30A900BE30890B21
:100B4800A32DA90BA32DAA0BA32D00000E308531D0
:100B58000225853140012308B12D08004001A40079
:100B68009416460196139A139E13400124080319FC
:100B7800BE2DBF2DC72D6430A3002308A100093066
:100B88008531C9258531630008004001A2008631FE
:100B98008F268531D43086313A26853140012208A6
:100BA80086313A2685314001210886313A26853139
:100BB8008631892685310800F400400194164601E3
:100BC80096139A139E1374080319EB2DEC2DF42D2C
:100BD8006430F3007308F100093086310A26853144
:100BE80063000800853174258531003040012102F9
:100BF800DE3003192002031C022E032E092EFB01EE
:100C080001308531B2258531092E0800F200863180
:100C18009B268631D43086315E268631720886312D
:100C28005E268631710886315E26863186319526A4
:100C3800863108001F2E43010F19232E242E1F2E44
:100C480011081F39031D292E2A2E1F2E2B2E0800AE
:100C58002D2E43010F19312E322E2D2E11081F393A
:100C6800031D372E382E2D2E392E08004001A000E6
:100C780086311E2686314001200843018C00080079
:100C8800843173248631400194128E1684310D24E8
:100C98008631080055307D018F00AA308F00013061
:100CA8008F00080055307D018F00AA308F00013079
:100CB8008F000800F00086312C2686317008430129
:100CC8008C0008004001A1002108A0002008C900EC
:100CD80008004001A1002108A0002008C800080061
:100CE80055307D018F00AA308F008F010800F10078
:100CF8007108F00070084001C900080055307D01F6
:100D08008F00AA308F008F01080086311E26863199
:100D180043011115080086311E268631430111143E
:100D2800080086312C2686314301111508008631CA
:100D38002C26863143011114080040014808A42ECE
:100D4800080043019116111608004301911211166B
:0A0D5800080040014908B02E080011
:020000040001F9
:0A000E009C3FFE379F3FFF3FFF3F7E
:00000001FF
