:020000040000FA
:04000000803118280B
:100008007E14803145018C014E0190108031BA2058
:1000180080317E01BF127D08031D1328142816287D
:10002800630016287E10090080311A28FC01FD01A2
:100038004001C601C701C801C901CA01CB01CC01F1
:10004800CD01CE017E1040018231A82A4001480826
:10005800BB003B08C300C1016230BB003B08C200C3
:1000680043084202031839283A283E284208BB00B0
:100078003B08C30041084302031843284428492881
:100088004108BB003B08C30049284308BB00BC012A
:100098003B08AF003C08B0004108BD003D08B10076
:1000A8004208BE003E08B200B3017F30BF003F08DF
:1000B800B4008331342380314001C0004008C300BC
:1000C80040304302031869286A288B284308BB007C
:1000D800BC013B08AF003C08B000B1013F30BD0097
:1000E8003D08B200B301FF30BE003E08B4008331C2
:1000F800342380314001BF003F08C3004601950109
:100108004001430846019900FF309D00B9283F305F
:1001180040014302031C91289228B9284308BB00D8
:10012800BC013B08AF003C08B0003F30BD003D08B3
:10013800B1007F30BE003E08B200B301FF30BF00FF
:100148003F08B4008331342380314001C0004008A7
:10015800C30046019501FF30990040014303FF3A6F
:10016800FF3E46019D00B928B9280800FB01FA01A5
:10017800D1284E01901CC128C228C8280130F90096
:100188007908FB079010C82878307B02031CCD281B
:10019800CE28D128FA01FA0AD12840018C1AD5288C
:1001A800D628DD287A080319DA28DB28BD28DD28B7
:1001B800DD2878307B02031CE228E32817297D0814
:1001C8000319E728E9280130EA280030F9007908FE
:1001D800FD007D03031DF128F228F6288631CF267D
:1001E800803110297D08031DFA28FB281029873142
:1001F80045278031033A031D0229032908290130C4
:100208008631752680311029003086317526803177
:10021800102910291029102940018C1E142915298C
:1002280010293D293D2902307B02031C1C291D2968
:100238003D297D080319212922293D290130F9008A
:100248007908CD074D088731132780318731452735
:100258008031F90004307902031C332934293D29FF
:100268004001CD014D088731132780313D293D29B3
:100278003D2908004001AC01A71F432944294C2906
:10028800A609A709A60A0319A70AAC01AC0A4C29B2
:10029800A91F4F2950295A29A809A909A80A0319E9
:1002A800A90A0130AA002A08AC065A29AD01AE01F4
:1002B800260827040319612962299729AB01AB0A8B
:1002C8006F290130A635A70D890B66290130AA00D0
:1002D8002A08AB076F29A71F722973296529752971
:1002E80075290130AD35AE0D890B7629270829020D
:1002F800031D802926082802031C832984298A29AA
:100308002608A8022708A93B2D148A290130A736F8
:10031800A60C890B8B290130AB02031D9429952962
:100328007529972997292C0803199B299C29A22903
:10033800AD09AE09AD0A0319AE0AA2292E08A70015
:100348002D08A600A729080000304001AC000030A5
:10035800AB000030AA000030A900230822042104C1
:1003680020040319B829B929002AAD01AD0AC82902
:100378000130A035A10DA20DA30D890BBD290130B7
:10038800A8002808AD07C829A31FCB29CC29BC2958
:10039800CE29CE290130A935AA0DAB0DAC0D890B9C
:1003A800CF2923082702031DE32922082602031D5B
:1003B800E32921082502031DE32920082402031C40
:1003C800E629E729F1292008A4022108A53B2208EB
:1003D800A63B2308A73B2914F1290130A336A20C18
:1003E800A10CA00C890BF2290130AD02031DFD29D7
:1003F800FE29CE29002A002A2C08A3002B08A200D7
:100408002A08A1002908A000092A08007C0A031D5F
:100418000E2A0F2A1E2AFC0101304001A0002008E4
:10042800C90703304902031C1A2A1B2A1E2AC901BC
:100438001E2A1E2A01304001A0002008FC077D303A
:100448004001A000AB30890B272AA00B272A0032D5
:1004580040014908031D312A322A3B2A7C03FF3A0E
:10046800FF3E460195007C0899009D013B2A40010A
:100478004903031D402A412A4A2A460195017C0363
:10048800FF3AFF3E99007C089D004A2A023040014D
:100498004906031D502A512A5A2A7C08460195000C
:1004A80099017C03FF3AFF3E9D005A2A080040014B
:1004B8004A08031D602A612A662A460195019901A6
:1004C8009D01A72A40014A03031D6B2A6C2A702A42
:1004D80082310A228231A72A023040014A06031DCE
:1004E800762A772A7B2A80312A208231A72A03306C
:1004F80040014A06031D812A822AA72A460195013E
:100508009901FF309D0011304001C5003C30C40006
:10051800CB30890B8D2AC40B8D2AC50B8D2A460139
:10052800950199019D0111304001C5003C30C4007E
:10053800CB30890B9D2AC40B9D2AC50B9D2AA72A5F
:10054800A72AA72AA72A0800833171238231873175
:100558000C27823111307D01C60016307E01A100C2
:1005680010307D01C50015307E01A0008631E626D9
:10057800823100304001B1000130B0008630AF0058
:10058800A030AE008431DA2482318331A92382314C
:1005980085317E2582318331E02382316300D42A7C
:1005A8007D03031DD82AD92AEB2A8231F122823110
:1005B80040014B080319E12AE22AE62A8431AB24D8
:1005C8008231D42A82315B228231D42AD42A630030
:1005D800D42AD42AD42A803118287D080319F52A68
:1005E800F62A332B4E01101CFA2AFB2A332B101043
:1005F80001304001AD002D08CE073C304E02031CEF
:10060800062B072B332BCE0184314824823140013D
:10061800AD002D08CB008631292682314001AD007E
:100628002D08CC004C0887310527823187313927BE
:1006380082314001AD0033302D020318242B252BC5
:100648002E2B0230AD002D08CD004D088631FE2638
:1006580082312E2B86318B268231332B332B0800A7
:1006680040013108B500B601B509B609B50A031944
:10067800B60A32083507A60036080318360AA70056
:100688003108B700B801B709B809B70A0319B80A99
:100698002F083707A0003008383DA1003308B900FB
:1006A800BA01B909BA09B90A0319BA0A34083907E3
:1006B800A2003A0803183A0AA3008531A32583311A
:1006C80040012108A9002008A80081313E2183317A
:1006D800400126083307702B0800033050019200B0
:1006E80044010E10FF3040019200FF30940010309A
:1006F8007E01B800CE012030B900033045019000DA
:100708008E170E128E120E170E148E140E158E15CD
:100718008C01FF308D004E019010353044018E0061
:100728008F1703309100FF308D00FF308C004E0191
:100738001A10161620307E01BD002030BE00BF0101
:10074800C8308B008B170B17080048304001A300F6
:100758002308A100003086315E2683311A3040011B
:10076800A3002308A100033086315E268331603060
:100778004001A3002308A100043086315E2683319E
:10078800CD304001A3002308A100073086315E2642
:10079800833135304001A3002308A100023086319F
:1007A8005E268331FF304001A3002308A1000D30ED
:1007B80086315E268331080087310C2783310B3060
:1007C8007E01A2000C30A3000D30A4008631E6267D
:1007D800833146019601FF3045018D0046019501A0
:1007E8003F3094008030960040011411E0304601FB
:1007F80096009A0199013F30980080309A00400194
:100808009411E03046019A009E019D013F309C0002
:1008180080309E0040011412E03046019E0008001E
:1008280087311A2784310B307E01A2000C30A300D7
:100838000D30A4008631EE26843146019601FF3042
:1008480045018D00460195013F30940080309600A7
:1008580040011411E030460196009A0199013F3099
:10086800980080309A0040019411E03046019A00C7
:100878009E019D013F309C0080309E004001141273
:10088800E03046019E0008000B308531092584318F
:1008980040012308A9002908AC00AA012C08A900D6
:1008A8000430A936890B552C290803195C2C5D2CBA
:1008B800602CAA01AA0A602C2A08A9002908C700E6
:1008C800AB012C08A9000230A936890B682C29082D
:1008D80003196F2C702C732CAB01AB0A732C2B08EB
:1008E800A9002908C6004708792C08004830F300F9
:1008F8007308F100003086319F2684311A30F300E6
:100908007308F100033086319F2684316030F3008C
:100918007308F100043086319F268431CD30F3000E
:100928007308F100073086319F2684313530F30093
:100938007308F100023086319F268431FF30F300BE
:100948007308F1000D3086319F268431080040017C
:100958004603031DB02CB12CB72C46019501990113
:10096800FF309D00D92C023040014606031DBD2CE6
:10097800BE2CC52C46019501FF309900FF309D0023
:10098800D92C033040014606031DCB2CCC2CD22C8D
:1009980046019501FF3099009D01D92C460195012A
:1009A80099019D01D92CD92CD92C08002830430154
:1009B8009000910140012E08B2002F08B3003008C2
:1009C800B4003108B5000230B235B30DB40DB50D21
:1009D800890BE82C3508A3003408A2003308A100CD
:1009E8003208A0000130A700E830A6004830A50072
:1009F8000030A4008131A821843140012008FF3E45
:100A080043018D0080308F0008004001A700873126
:100A180027278531D4308631DC26853140012708E7
:100A28008631DC268531873127278531D5308631D7
:100A3800DC26853101308531592585314001A500F5
:100A48002508A80087312127853140012808A500FD
:100A5800A6012508A3002608A400322D080040019D
:100A6800A50087312727853150308631DC2685312E
:100A7800400125088631DC26853140012108863170
:100A8800DC268531400122088631DC26853140018B
:100A980023088631DC268531400124088631DC268E
:100AA800853187312127853108004001A100863131
:100AB800B3268531430191158631B326853143012B
:100AC8000C084001A0002008A2008631B326853119
:100AD800400121080319712D722D762D87313D278C
:100AE80085317A2D8731412785317A2D40012208B9
:100AF8007D2D08002C304001A6002608A100D13029
:100B0800A7002708A2000230A8002808A300A40113
:100B18008930853133258531C8304001A600260843
:100B2800A100C030A7002708A2000330A8002808A9
:100B3800A300A4018D30853133258531080040019B
:100B4800A401A501A72D201CAA2DAB2DAF2D22088D
:100B5800A4072308A53D0130A235A30D890BB02DAC
:100B68000130A136A00C890BB52D20082104031DE6
:100B7800BE2DBF2DA72DC02D2508A1002408A0003B
:100B8800C52D08002C30F6007608F100D130F700AA
:100B98007708F2000230F8007808F300F401893091
:100BA800863109268531C830F6007608F100C03054
:100BB800F7007708F2000330F8007808F300F40132
:100BC8008D308631092685310800603041019E004C
:100BD80011309D0034304001A200F130890BF22D14
:100BE800A20BF22D003241019D14FA2D9D18FD2D06
:100BF800FE2DFA2DFF2D1C084001A200A30122089A
:100C0800A0002308A100082E0800F500873133272B
:100C1800863150308631F626863175088631F626BB
:100C2800863171088631F626863172088631F626B5
:100C3800863173088631F626863174088631F626A1
:100C4800863187312D278631080091304001A9006F
:100C58002908A100023086315E2686311530400110
:100C6800AA004B30A900BE30890B382EA90B382EAC
:100C7800AA0B382E00000E30853109258631400137
:100C88002308462E08004001A40094164601961336
:100C98009A139E13400124080319532E542E5C2ED8
:100CA8006430A3002308A100093086315E2686310E
:100CB800630008004001A200873127278631D4301D
:100CC8008631DC268631400122088631DC268631D1
:100CD800400121088631DC2686318731212786317B
:100CE8000800F40040019416460196139A139E13C7
:100CF80074080319802E812E892E6430F30073083E
:100D0800F100093086319F2686316300080085315D
:100D1800E9258631003040012102DE300319200226
:100D2800031C972E982E9E2EFD01013086314726F2
:100D380086319E2E0800F200873133278631D43061
:100D48008631F626863172088631F6268631710894
:100D58008631F626863187312D2786310800B42E54
:100D680043010F19B82EB92EB42E11081F39031DCF
:100D7800BE2EBF2EB42EC02E0800C22E43010F195E
:100D8800C62EC72EC22E11081F39031DCC2ECD2EFC
:100D9800C22ECE2E080084317A2486318531C625AC
:100DA8008631400194128E1684311424863108004D
:100DB8004001A0008631B326863140012008430156
:100DC8008C00080055307D018F00AA308F0001305B
:100DD8008F00080055307D018F00AA308F00013048
:100DE8008F000800F0008631C12686317008430163
:100DF8008C0008004001A1002108A0002008CA00BA
:100E080008004001A1002108A0002008C80008002F
:100E180055307D018F00AA308F008F010800F10046
:100E28007108F00070084001CA00080055307D01C3
:100E38008F00AA308F008F0108008631B3268731D2
:100E48004301111508008631B32687314301111477
:100E580008008631C1268731430111150800863103
:100E6800C1268731430111140800400148083C2F6E
:100E7800080043019116111608004301911211163A
:0A0E8800080040014A08482F080046
:020000040001F9
:0A000E009C3FFE379F3FFF3FFF3F7E
:00000001FF
